:100000000C94D6040C941D050C941D050C941D0530
:100010000C941D050C941D050C941D050C941D05D8
:100020000C941D050C941D050C94711F0C94AD1EB1
:100030000C94F6260C941D050C941D050C941D05BE
:100040000C941D050C941D050C941D050C941D05A8
:100050000C941D050C941D260C941D050C941D0577
:100060000C941D050C941D050C941D050C941D0588
:100070000C941D050C941D050C941D050C941D0578
:100080000C941D050C941D050C941D050C941D0568
:100090000C941D050C941D050C941D050C941D0558
:1000A0000C941D050C941D050C941D055411C411D0
:1000B000C911CE11D311D811DD11E211E711EC11E4
:1000C000F11109120C120F121212151218121B1232
:1000D0001E123412021302133C133C138F13AB1382
:1000E00074157415ED13CB14DC14DC14BB1CE21C6A
:1000F0008F1EE21C8F1E2E1D511D8F1E521E611E53
:10010000E427E427F727F727ED27F727F727F7272F
:10011000E427E427F227F727F727F2270001010158
:1001200001010101010102020202020202020203B4
:100130000303030303030304040404040404050584
:100140000505050606060606070707070708080847
:1001500008090909090A0A0A0B0B0B0C0C0C0D0DF6
:100160000D0E0E0E0F0F0F1010111111121213138E
:100170001414151516161717181819191A1A1B1B07
:100180001C1D1D1E1E1F2020212222232424252663
:1001900026272829292A2B2C2D2D2E2F303132329B
:1001A000333435363738393A3B3C3D3E3F404142A7
:1001B000434445464748494A4C4D4E4F505153548D
:1001C000555658595A5B5D5E5F6162646566686941
:1001D0006B6C6D6F7072737577787A7B7D7E8082C1
:1001E000838587888A8C8E8F91939596989A9C9E0A
:1001F000A0A2A3A5A7A9ABADAFB1B3B5B7BABCBE1A
:10020000C0C2C4C6C9CBCDCFD1D4D6D8DBDDDFE2E6
:10021000E4E7E9EBEEF0F3F5F8FAFDFF7267626CE4
:10022000696768742074696D657220656E61626CBF
:1002300065642E0A007267626C69676874206D6F6E
:100240006465205B4E4F454550524F4D5D3A202529
:10025000750A007267626C69676874206D6F646507
:10026000205B454550524F4D5D3A2025750A00727E
:1002700067626C69676874207365742068737620A0
:100280005B4E4F454550524F4D5D3A2025752C250C
:10029000752C25750A007267626C69676874207333
:1002A000657420687376205B454550524F4D5D3A2A
:1002B0002025752C25752C25750A007267626C69DE
:1002C000676874207261696E626F7720736574204D
:1002D0006873763A2025642C25642C25642C2575BA
:1002E0000A00FFAA7F55407267626C6967687420D4
:1002F00074696D65722064697361626C652E0A00B1
:100300002223252628292A2C2D2F30323335363822
:100310003A3B3D3E4042434547494A4C4E5051537B
:100320005557595A5C5E6062646668696B6D6F719F
:10033000737577797B7D7F81838587898A8C8E90A1
:10034000929496989A9C9E9FA1A3A5A7A8AAACAEAA
:10035000AFB1B3B4B6B8B9BBBCBEBFC1C2C3C5C6EA
:10036000C7C9CACBCCCDCED0D1D2D2D3D4D5D6D793
:10037000D7D8D9D9DADADBDBDBDCDCDCDCDCDDDDD1
:10038000DDDDDCDCDCDCDCDBDBDBDADAD9D9D8D7C1
:10039000D7D6D5D4D3D2D2D1D0CECDCCCBCAC9C763
:1003A000C6C5C3C2C1BFBEBCBBB9B8B6B4B3B1AF9A
:1003B000AEACAAA8A7A5A3A19F9E9C9A989694923A
:1003C000908E8C8A89878583817F7D7B7977757311
:1003D000716F6D6B6968666462605E5C5A595755EF
:1003E0005351504E4C4A4947454342403E3D3B3AAB
:1003F0003836353332302F2D2C2A29282625232232
:100400007267626C696768742064697361626C65A5
:10041000205B454550524F4D5D3A207267626C69D2
:100420006768745F636F6E6669672E656E61626C84
:1004300065203D2025750A007267626C69676874E3
:1004400020656E61626C65205B454550524F4D5D85
:100450003A207267626C696768745F636F6E666981
:10046000672E656E61626C65203D2025750A0072FD
:1004700067626C6967687420746F67676C65205B7E
:10048000454550524F4D5D3A207267626C6967680E
:10049000745F636F6E6669672E656E61626C65205E
:1004A0003D2025750A0044454255473A206469734A
:1004B00061626C65642E0A0044454255473A2065E6
:1004C0006E61626C65642E0A0029001E001F002008
:1004D0000021002200230024002500260027002DF3
:1004E000002E00350000002B0014001A0008001533
:1004F0000017001C0018000C00120013002F003021
:100500000031002A00390004001600070009000A23
:10051000000B000D000E000F003300340000002817
:10052000000000E1001D001B00060019000500117D
:10053000001000360037003800E7005200E50000E8
:1005400000E000E200E300015100002C00E2002C7A
:100550000000000151E500500051004F004A00002A
:100560005C000000000000C35CC45CC55CC65CC7E6
:100570005CC85CC95CCA5C00000000C25C00000092
:10058000000000CB5CCC5CCD5CCE5CCF5CD05CD1A1
:100590005C000000000000000000000000000000FF
:1005A00000D35CD25CD45C000000000000000000BE
:1005B000000000000000000000000000000000003B
:1005C000000000000000000000000000000000002B
:1005D000000000A900000000000000000001000071
:1005E00000AD00AE0000000100000000000000BCF3
:1005F00000AA00BB007267626C696768745F636F12
:100600006E6669672E7370656564203D2025640AF7
:10061000007267626C696768745F636F6E666967B2
:100620002E76616C203D2025640A007267626C6939
:100630006768745F636F6E6669672E736174203DCF
:100640002025640A007267626C696768745F636F73
:100650006E6669672E687565203D2025640A007204
:1006600067686C696768745F636F6E6669672E6D33
:100670006F6465203D2025640A007267626C6967BB
:1006800068745F636F6E6669672E656E61626C6524
:10069000203D2025640A007267626C696768745F98
:1006A000636F6E66696720454550524F4D3A0A00A8
:1006B0007267626C696768745F696E6974207267DB
:1006C000626C696768745F636F6E6669672E6D6FD1
:1006D0006465203D20302E20577269746520646562
:1006E0006661756C742076616C75657320746F201B
:1006F000454550524F4D2E0A007267626C6967681B
:10070000745F696E6974206565636F6E66696720E2
:100710006973206E6F7420656E61626C65642E0A69
:10072000007267626C696768745F696E69742073D0
:1007300074617274210A007267626C696768745F21
:10074000696E69742063616C6C65642E0A000A002E
:100750002530313662003A200025303258000A72C6
:100760002F63203031323334353637383941424304
:100770004445460A0032190A00047F3F1F643214C0
:10078000643214783C1E1E140A050A0025303258C3
:10079000006B6579626F6172645F7365745F6C652D
:1007A000643A20005B735D004B6579626F6172642F
:1007B0002073746172742E0A000631FF0974A1015E
:1007C0000975150026FF0095207508810209761528
:1007D0000026FF00952075089102C005010902A1BD
:1007E0000185020901A10005091901290515002546
:1007F00001950575018102950175038101050109C6
:100800003009311581257F95027508810609381553
:1008100081257F950175088106050C0A380215812E
:10082000257F950175088106C0C005010980A101D9
:10083000850319012AB700150126B7009501751027
:100840008100C0050C0901A101850419012AA0023B
:10085000150126A002950175108100C00501090649
:10086000A101050719E029E7150025019508750183
:1008700081029501750881010507190029FF1500FE
:1008800026FF0095067508810005081901290595C0
:100890000575019102950175039101C05B435D00EF
:1008A0005B445D005B535D005B575D005B525D0028
:1008B00009025B00030100A0FA0904000001030122
:1008C00001000921110100012240000705810308F0
:1008D000000A0904010001030000000921110100C0
:1008E000012281000705820320000A090402000298
:1008F00003000000092111010001222200070583E5
:10090000032000010705030320000112011001006C
:10091000000008646975000100010203010403304E
:100920000000000C03490064006F0062006F0000CB
:10093000001003470065006E0065007200690063E7
:10094000000000040309040A002530325820006B1F
:100950006579626F6172645F7265706F72743A205C
:1009600000290A002575002F002575005D28002547
:100970006400200025640020002564002000256418
:10098000007C0025303258006D6F7573656B65799A
:10099000205B62746E7C782079207620685D2872F6
:1009A00065702F61636C293A205B000011241FBE23
:1009B000CFEFDAE0DEBFCDBF04B603FE27C08091E3
:1009C0000C0390910D03A0910E03B0910F0387309B
:1009D000904BA740B04BD1F410920C0310920D0332
:1009E00010920E0310920F0314BE84B7877F84BF4A
:1009F0000FB6F894A895809160008861809360009C
:100A0000109260000FBEE0E0F8E3099511E0A0E06D
:100A1000B1E0E2E2F5E502C005900D92AC39B10714
:100A2000D9F723E0ACE9B1E001C01D92AC30B207C8
:100A3000E1F70E9416170C948F2A0C940000FF9384
:100A4000EF93E0919C01F0919D01309709F0099599
:100A5000EF91FF910895FC018591803011F0EFDF57
:100A6000FBCF0895FF27E0E230E247FF0CC041953D
:100A700097FF09C0EDE26095709580959095611D96
:100A8000711D811D911D27FF02C0219530E350E2A9
:100A9000AA27660F771F881F991FAA1FA41710F097
:100AA000A41B63955A95A9F7AA3008F0A95FA05D29
:100AB000AF93F395611571058105910541F7ED320D
:100AC00011F4EF93F395F21718F43F93F395FBCFDE
:100AD0008F91B5DFFA95E1F70895E991F991859144
:100AE000803021F0853219F0AADFF9CF089520E097
:100AF000E89455915532C1F3503311F468945591EF
:100B00005A3348F4505390F3220F022E220F220F33
:100B1000200D250FF4CF0EF421958991999153362C
:100B200019F3533729F1533559F1BC018827992717
:100B3000E8945C3621F489919991689455915436E2
:100B400039F446EF7EF077FF0DC08FEF9FEF0AC0BC
:100B500055374AE039F0583540E121F0523642E04D
:100B600009F00895FF93EF937DDFEF91FF91B7CFE9
:100B7000FF93EF93FC0181918030B9F360DFFBCFED
:100B8000FF93EF9368DFF1CFDF93CF93CDB7DEB75D
:100B90002596A3DFCF91DF9108950895BF92CF925C
:100BA000DF92EF92FF920F931F93CF93DF93E82E84
:100BB000F62EE901E42FF0E0611106C0E45EFE4F7D
:100BC0008491B82EE82F71C0262F30E0E45EFE4FEE
:100BD000E491FE2FCE2ED12C46E0849FC00111243B
:100BE0000FEF10E0B8010E94542A4BEA4603C001FF
:100BF000479F900D11248E0D911D8E0D911D982FE4
:100C0000990F890FD801A21BB30BAC9DA001AD9D1C
:100C1000500DBC9D500D1124B52EF89ED00111240D
:100C2000AB2FBB277801EA1AFB0AEC9CD001ED9CA4
:100C3000B00DFC9CB00D11247801E81AF108E29E79
:100C4000C001E39E900DF29E900D1124892F9927EB
:100C5000081B190B0C9D90010D9D300D1C9D300D36
:100C60001124832F6230710591F048F461157105EC
:100C7000E1F061307105B9F48E2FEB2F16C06430AE
:100C8000710569F040F06630710579F00CC08E2F67
:100C9000E52FB32E0AC0E52FBF2E8B2F06C0852F60
:100CA000BE2EE32F02C0852FBB2EE9838883BA8234
:100CB000DF91CF911F910F91FF90EF90DF90CF9038
:100CC000BF9008959091390292FF0DC0282F28718E
:100CD000283019F4877F846006C0282F24712430BF
:100CE00011F48B7F886093FF0DC0282F2871283165
:100CF00019F4877E846106C0282F2471243111F4F1
:100D00008B7E886120913A0220FF0DC0382F387108
:100D1000383019F4877F816006C0382F3171313047
:100D200011F48E7F886021FF0DC0282F2871283193
:100D300019F4877E816106C0282F2171213111F4B9
:100D40008E7E886194FD877E08951F93CF93DF93F5
:100D5000CDB7DEB767970FB6F894DEBF0FBECDBF35
:100D60004B8B5C8B6D8B7E8B8F8B86E09E01235F24
:100D70003F4FD901E82F1D92EA95E9F795E0FE0172
:100D80007396D90101900D929A95E1F7F901DE0170
:100D9000179601900D928A95E1F7CE0107960E9471
:100DA000952281113EC086E0FE013796DE01119644
:100DB00001900D928A95E1F7FF81E8856A857B8530
:100DC0006115710531F0EF3F31F481E0FF3F19F417
:100DD00003C081E001C080E080FD23C02091960225
:100DE00030E0C9010196877099274091C70250E011
:100DF0008417950779F1F983EA837D836C8396E004
:100E0000929FD001939FB00D1124A956BD4FFE01B2
:100E1000319601900D929A95E1F7809396020E9487
:100E20001F2216E08091C702909196028917F9F06F
:100E3000189FC001112489569D4F0E949522882336
:100E4000B1F08091C70290E0019687709927809356
:100E5000C702E8CF0E941628109296021092C7028D
:100E6000E0E9F2E086E0DF011D928A95E9F76796F6
:100E70000FB6F894DEBF0FBECDBFDF91CF911F91AB
:100E8000089520912802309129022817390771F01E
:100E90009093290280932802E0913C02F0913D0258
:100EA000309721F00084F185E02D09940895209178
:100EB0002602309127022817390771F090932702F4
:100EC00080932602E0913C02F0913D02309721F0A0
:100ED0000680F781E02D09940895E0913C02F0919D
:100EE0003D02309721F00190F081E02D099480E0DF
:100EF00008950F931F93CF93DF93C62FD42F122FF4
:100F0000FC0182818823C9F060932A020E94522644
:100F1000909325028093240280E28C0F883008F0A1
:100F20005EC0C77081E001C0880FCA95EAF7DF9103
:100F3000CF911F910F910C942C2880912A02681355
:100F40003EC080912402909125020E944326883C55
:100F50009105A8F500E20D0FCD17B9F080E28C0FD6
:100F6000883040F4C77081E001C0880FCA95EAF765
:100F70000E942128083048F481E09D2F977001C01D
:100F8000880F9A95EAF70E942C28812F0E949D28AD
:100F9000193349F4FFEF27EE83E0F1502040804001
:100FA000E1F700C00000812F0E9436280830B8F415
:100FB000D77081E001C0880FDA95EAF70AC080E2B5
:100FC0008C0F883060F4C77081E001C0880FCA952B
:100FD000EAF7DF91CF911F910F910C942128DF91B7
:100FE000CF911F910F910895882311F0FA0101C04C
:100FF000FB010994109255028091640280FF08C0A1
:1010000087EE92E09F938F930E94C4050F900F90FC
:10101000089580914F0280FF0AC0809A81B38E7F2D
:1010200091B391602FB7F894E4EAF1E00CC0E4EAE0
:10103000F1E084ED91E011821082128233968E17D6
:101040009F07C9F7EACF31E0E43DF30789F031911A
:1010500048E091BB000000C037FF81BB330F0000A8
:1010600000C000C000C081BB00C04A9591F7EBCF23
:101070002FBF87EC90E00197F1F700C000000895C2
:101080008F929F92AF92BF92CF92DF92EF92FF9298
:101090000F931F93CF93DF93FC01B280948081E084
:1010A0008483C4EDD1E004EA11E08BE4A82E882407
:1010B0008394EE24EA94F12C2BE4C22ED12C9110CF
:1010C00003C01B821A824AC02B81222311F12150B6
:1010D0002B833C81332319F09A2D921B01C0922F50
:1010E00080915202899FC0011124B6010E94542AA6
:1010F0006A83211104C0332311F01C82AB8222E0E9
:101100002B1560F180915002888380915102898370
:1011100025C00E948D298230914004F582E08B1514
:1011200030F40E948D29B7010E94682A02C0809184
:101130005002888322E02B1558F40E948D292091BB
:1011400051022695622F70E00E94682A820F02C029
:101150008091510289831A82AB828C8298014A81E4
:10116000698188810E94CE0525960D5F1F4F82E020
:10117000C432D80709F0A3CFDF91CF911F910F910F
:10118000FF90EF90DF90CF90BF90AF909F908F90A7
:101190000C940908EF92FF920F931F93CF93DF9364
:1011A0008C01C4EAD1E0E12CF12CF8018481F8E053
:1011B000EF16F1041CF4882339F002C0811104C039
:1011C0009E014091520202C09E0140E06091510296
:1011D000809150020E94CE058FEFE81AF80A2396FC
:1011E00090E1E916F10409F70E940908F8018481E9
:1011F00090E00196817099278483DF91CF911F91B0
:101200000F91FF90EF900895EF92FF920F931F932D
:10121000CF93DF93EC018C819D810196817099279A
:101220009D838C8384EAE82E81E0F82E10E005E5AA
:10123000212F26958C819D81820F911D81709701B0
:101240004091520260915102809F802D11240E9492
:10125000CE051F5F83E0E80EF11C103149F7DF91E6
:10126000CF911F910F91FF90EF900C9409080F936D
:101270001F93CF93DF93C4EAD1E0FE011182108265
:101280001282339681E0E43DF807C1F700E010E0F8
:101290008091A201082E000C990B0817190794F0F1
:1012A00080911001082E000C990B8017910754F0C3
:1012B0009E014091520260915102809150020E9421
:1012C000CE0503C0198218821A820F5F1F4F239622
:1012D00000311105E9F60E94090880910F019091F3
:1012E000A201980F9093A20120911001280F209342
:1012F0001001121614F49F301CF0819580930F0199
:10130000DF91CF911F910F910895CF92DF92EF92CD
:10131000FF920F931F93CF93DF93FC01828180FF95
:1013200003C0DD24DA9402C0DD24D394C4EAD1E002
:1013300000E010E0198218821A8294E0E92EF12C64
:10134000C12C8091A1018C0D813114F08F7002C0ED
:1013500087FD805F082E000C990B0817190791F480
:10136000809152028E9DA0018F9D500D11245595A4
:101370004795559547959E01609151028091500285
:101380000E94CE05CD0CF1E0EF1AF108D1F60F5F07
:101390001F4F23960031110569F60E9409088091BC
:1013A000A10191E0D91206C0811102C08FE006C0F0
:1013B000815004C090E001968F7099278093A1011D
:1013C000DF91CF911F910F91FF90EF90DF90CF9021
:1013D0000895EF92FF921F93CF93DF93EC0184EA7D
:1013E000E82E81E0F82E10E08C81970140915202A6
:1013F00060915102810F0E94CE05115F83E0E80EDB
:10140000F11C103F89F70E9409089A818C8190FF96
:1014100002C08F5F01C081508C83DF91CF911F91FB
:10142000FF90EF90089590914F0290FF0CC0E4EA76
:10143000F1E0818360834283339691E0E43DF907D4
:10144000C1F70C94090808950F931F93CF93DF936E
:1014500000D01F92CDB7DEB78C018091A30181111E
:101460000AC09E012F5F3F4F4FEF6FEF0E94CE05E6
:101470008A818093A301F8018481813051F028F0A2
:10148000823061F44091A3010AC08091A30140E041
:1014900007C06091A30140E080E003C040E080E02D
:1014A00060E00E94130AF801848190E0019663E0F5
:1014B00070E00E94682A84830F900F900F90DF9154
:1014C000CF911F910F910895CF93DF9300D01F927A
:1014D000CDB7DEB790914F0290FF0AC09E012F5FFB
:1014E0003F4F0E94CE054B8169818A810E94130A79
:1014F0000F900F900F90DF91CF910895CF93DF93CE
:10150000EC01EFE4F2E0438162818C810E94640A85
:101510008C818F5F8C83DF91CF910895CF93DF9380
:10152000EC01EC81F0E0E050FD4F4491EFE4F2E09B
:10153000628181810E94640A8C818F5F8C83DF913C
:10154000CF91089580914F02282F269530E02115E4
:10155000310519F48170826005C02B32310524F009
:101560008170846580934F020895CF92DF92EF924D
:10157000FF926B017C010E94A20AB701A60188E0DC
:1015800090E0FF90EF90DF90CF900C94C3293F92B2
:101590004F925F926F927F928F929F92AF92BF9283
:1015A000CF92DF92EF92FF920F931F93CF93DF932F
:1015B00000D01F92CDB7DEB7182F762E042F422E03
:1015C00090914F0290FFB2C0E92FE695AE2FB0E0A8
:1015D000A45EBE4F8C91809354029E7F923061F442
:1015E0009E012F5F3F4F812F0E94CE054B81698165
:1015F0008A810E94130A60C0823019F4009152025D
:101600005BC0863019F41091500256C08930D9F36E
:10161000893109F051C0E9518E2F8170582E81E037
:10162000652C6826E695F0E0EE51FD4FC590D4900C
:1016300034EAA32E31E0B32EE12CF12CDD244BEB68
:10164000842E42E0942EEC9CC001ED9C900DFC9CFD
:10165000900D112424E0969587952A95E1F7312E77
:10166000511002C0380E01C0381A8091640280FF08
:1016700011C0DF92CF921F926F921F923F92FF9202
:10168000EF929F928F920E94C4050FB6F894DEBF2E
:101690000FBECDBF9501402F672D832D0E94CE0533
:1016A0009FEFE91AF90A83E0A80EB11C90E1E91650
:1016B000F10449F60E9409081093500270925102F9
:1016C000009352024420E9F060914F027091500261
:1016D00080915102909152020E94B50A8091640259
:1016E00080FF24C0809152021F928F9380915102FB
:1016F0001F928F93809150021F928F9386E992E000
:101700000CC08091640280FF11C01F920F931F9242
:101710007F921F921F938FE692E09F938F930E9478
:10172000C4050FB6F894DEBF0FBECDBF0F900F906B
:101730000F90DF91CF911F910F91FF90EF90DF906D
:10174000CF90BF90AF909F908F907F906F905F9061
:101750004F903F900895EFE4F2E0438128E0421B70
:1017600008F440E021E0628181810C94C70AEFE433
:10177000F2E0438128E0420F08F44FEF21E062815C
:1017800081810C94C70AEFE4F2E0628128E0621BD9
:1017900008F460E021E0438181810C94C70AEFE402
:1017A000F2E0628128E0620F08F46FEF21E04381EC
:1017B00081810C94C70AEFE4F2E0818121E043814A
:1017C000628188500C94C70AEFE4F2E0818121E045
:1017D00043816281885F0C94C70A809153028823F9
:1017E00019F081508093530260914F027091500222
:1017F00080915102909152020C94B50A809153024B
:10180000833018F48F5F8093530260914F02709180
:10181000500280915102909152020C94B50A90911D
:101820004F0290FF68C09170811102C0926006C0A3
:101830008B3210F0946502C0880F982B90934F0262
:101840006623B1F060914F02709150028091510275
:10185000909152020E94B50A8091640280FF1BC0E1
:1018600080914F0286951F928F9383E592E00BC083
:101870008091640280FF0FC080914F0286951F9275
:101880008F9385E392E09F938F930E94C4050F90FE
:101890000F900F900F9060914F02669570E04BE0B3
:1018A00050E084E091E00E94822A892B19F00E9486
:1018B000FA0715C081E0809355020E94522690934A
:1018C0004A02809349028091640280FF08C08CE143
:1018D00092E09F938F930E94C4050F900F9081E038
:1018E00080934C0220E0409152026091510280911D
:1018F00050020C94C70A089580914F02869581503A
:1019000009F48AE261E00C940F0C80914F028695F5
:101910008F5F8B3208F081E061E00C940F0C9091A6
:101920004F0290FF04C09695981740F003C08111B4
:1019300005C090E0961710F40C94850C61E00C94AF
:101940000F0CEFE4F2E083E0808311828FEF82835B
:101950008383148260817181828193810C94B50AA2
:101960007F928F929F92AF92BF92CF92DF92EF922F
:10197000FF920F931F93CF93DF9307E411E0AFE241
:10198000B2E029E3A22E22E0B22E812CEE24E394D1
:10199000F12CE80189918E01E82FE295EF70F0E0DB
:1019A00021A18F70A70102C0440F551F8A95E2F74D
:1019B000CA01242B21A322A1742E7094272122A3D3
:1019C00050EA5A95F1F79CE4C92E91E0D92E60E0D7
:1019D00070E040E050E0E60199906E01292D2295DB
:1019E0002F7030E0E90128A130E0D92DDF7002C06E
:1019F00035952795DA95E2F720FD08C09701062E68
:101A000002C0220F331F0A94E2F702C020E030E048
:101A1000422B532B6F5F7F4F6F307105E1F691A121
:101A2000D72DD923D1A392A1892B82A38D919C91EB
:101A300011974817590729F011965C934E9381E04E
:101A400001C080E0882A1296AA16BB0609F0A1CF31
:101A5000882049F081E08093A0010E945226909353
:101A60009F0180939E018091A001882391F1809134
:101A70009E0190919F010E944326069750F180910C
:101A80002F02909130029093400280933F02809108
:101A900031029091320290934202809341028091F0
:101AA00033029091340290934402809343028091D8
:101AB00035029091360290934602809345028091C0
:101AC0003702909138029093480280934702109217
:101AD000A001882DDF91CF911F910F91FF90EF9082
:101AE000DF90CF90BF90AF909F908F907F900895A0
:101AF000CF93DF932BE4829FC0011124FC013FE0D0
:101B0000739FE00DF11D1124E60FF11DEE0FFF1F75
:101B1000E753FB4FC591D491CE01C238D10569F18D
:101B2000B0F4C133D10509F475C048F4C932D10508
:101B300009F469C0CA32D10509F473C085C0C53340
:101B4000D10509F459C0C933D105B9F07DC0C33EF0
:101B5000D10571F138F4C03ED105B1F0C23ED105D6
:101B600011F172C0C63ED105B9F1C73ED105C9F128
:101B7000C43ED10509F068C024C02091390220FD7F
:101B80005DC021FD5BC060C02091390220FD50C0C6
:101B900020913A0220FF67C18091390284FD61C122
:101BA00083EE90E060C12091390222FF5CC1F4CF46
:101BB0008091390282FD3FC080913A0280FD3EC093
:101BC000EBCF20913A0221FF4EC18091390284FD72
:101BD00048C187EE90E047C12091390223FF43C1FD
:101BE000F4CF8091390283FD2CC080913A0281FFAD
:101BF000ECCF84EE90E037C12091390225FF33C14C
:101C000089E290E030C12091390225FF2CC185E3A3
:101C100090E029C12091390226FF25C18AE290E097
:101C200022C12091390226FF1EC181E390E01BC131
:101C300089E390E018C182EE90E015C180EE90E05B
:101C400012C186EE90E00FC1C11530E5D30708F050
:101C500067C0C11540E4D40720F0CE019F70906AA0
:101C600002C1C83ED105B8F5C03ED10508F0FBC0A1
:101C7000C83AD105B8F4C53AD10550F08C2F855A31
:101C8000E82FF0E0E659FE4F808190E09064EBC0D1
:101C9000C130D10509F4E7C008F4E3C0249708F483
:101CA000E0C0E1C0CF3BD10560F48C2F885AE82F0B
:101CB000F0E0EE0FFF1FE359FE4F808191819464A5
:101CC000D2C0C03CD10508F4CCC0FE01EE0FFF1F0E
:101CD000E456F0400EC0C11520E2D20768F0C115ED
:101CE00040E3D407A8F4FE01FF70EE0FFF1FE45E8F
:101CF000FE4F85919491B7C0C11531E0D30708F02C
:101D0000B2C0C03FD10508F4ACC0CE019065ABC0F5
:101D1000CE019927D3FF02C0986CA5C0906CA3C0D8
:101D2000C11585E5D80708F05BC0C11524E5D207C9
:101D300028F09C2F8827846F906A95C0C11532E5E2
:101D4000D30738F5C11541E5D407F0F4CE0174E0AE
:101D5000969587957A95E1F7282F23703C2F33705D
:101D600081E090E002C0880F991F3A95E2F79C68E5
:101D7000922BEC2FEF70E695E69540E2E49FF001A0
:101D800011248E2B9F2B6FC09C2F8827816F906A08
:101D90006AC0AE01437055272C2F26952695C11594
:101DA000D34578F481E090E002C0880F991F4A95EE
:101DB000E2F740E2249F90011124822B932B9C6830
:101DC00052C081E090E002C0880F991F4A95E2F767
:101DD00040E2249F90011124822B932B9A6843C0E8
:101DE000C11529E5D207B0F4C11538E5D30728F0AD
:101DF0009C2F8827806F906A36C0C11546E5D407AE
:101E000080F58C2F0E9462068F7190E0982F8827B2
:101E1000906229C0C1158AE5D80790F48C2F8F7085
:101E20000E946206FE0194E0F695E7959A95E1F727
:101E3000EF70F0E0FE2FEE27F0699F01282B0FC016
:101E4000CE0190568115904260F48D2F8F710E94C3
:101E50006206FE01FF27F0628F719F01382BC901D6
:101E600002C080E090E0DF91CF9108958F929F9221
:101E7000AF92BF92CF92DF92EF92FF920F931F9398
:101E8000CF93DF93CDB7DEB72A970FB6F894DEBFB6
:101E90000FBECDBFFC010081D18083819481892B4D
:101EA00039F01FEFD11206C091E00F3F19F403C0C3
:101EB00091E001C090E090FD56C67F0185E0DE0113
:101EC000169601900D928A95E1F7F70122818E8195
:101ED0009F81222349F00E940821182F682F8E81AC
:101EE0009F810E94812103C00E945521182F2BE45D
:101EF000129FF00111243FE0D39EE00DF11D11244B
:101F0000E00FF11DEE0FFF1FE753FB4F05911491FA
:101F1000033F8CE51807B1F180F4083DECE51E079E
:101F2000C9F0093DFCE51F07C9F1073D2CE5120783
:101F3000C1F526E241EE61EE10C0053F3CE5130716
:101F400049F120F1063F9CE5190759F527E245EED6
:101F500066EE03C027E245EE65EEC7012A960FB68E
:101F6000F894DEBF0FBECDBFDF91CF911F910F91CF
:101F7000FF90EF90DF90CF90BF90AF909F908F90A9
:101F80000C94790726E241EE60EEE7CF27E245EEBA
:101F900064EEE3CF26E241EE62EEDFCF28E241E0DD
:101FA000DBCFF7019281992309F450C110922A02E4
:101FB0000230FCE51F0708F433C106312CE5120797
:101FC00038F098012A5F3C452930310508F028C1D6
:101FD0000E94462790933A028093390200313CE5F3
:101FE000130709F4C3C008F041C008309CE5190785
:101FF00009F49AC0F0F40430FCE51F0709F487C027
:1020000068F402303CE5130709F477C003301C453F
:1020100009F0E5C080913902826076C006309CE507
:10202000190709F46EC008F07BC0809139028860FE
:102030006BC00C30FCE51F0709F485C068F40A305A
:102040003CE5130709F474C008F079C00E94162813
:1020500080913902806858C00E309CE5190709F458
:1020600076C008F07FC0809139028BC00B3FFCE541
:102070001F0709F44FC018F503313CE5130709F4B5
:102080007DC078F401319CE5190709F473C0023171
:102090001C4509F0A4C00E941628809139028F7750
:1020A00033C00531FCE51F0709F472C008F486C08F
:1020B0000A3F1C4509F093C080913A023EC00F3F91
:1020C0008CE5180709F45FC058F40D3FECE51E07D6
:1020D00009F444C008F43FC080913A0282602DC0E8
:1020E00001302DE5120709F475C008F45DC0023017
:1020F0001D4509F074C060E06EC0809139028160B6
:1021000003C08091390280618093390268C0809158
:10211000390211C080913A02826080933A025FC016
:10212000809139028062F0CF809139028064ECCFD7
:102130008091390288608460E7CF8160EECF809122
:1021400039028E7FE1CF809139028D7FDDCF809182
:102150003902877FD9CF80913A0218C080913A0224
:102160008D7FDBCF809139028F7ECECF8091390277
:102170008F7DCACF809139028F7BC6CF8091390283
:10218000877F8B7FC1CF80913A028D7F8E7FC5CFB5
:102190008091390282FB222720F991E0922790FB5F
:1021A00082F990FB83F9B0CF80913A02982F9095F5
:1021B00091708E7F892B90FB81F9AFCF0E941628FA
:1021C0008091390287FB222720F991E0922790FB2A
:1021D00087F99ACF61E08EE090E00E94B12960918A
:1021E000390210913A0284E090E00E94B129612FF7
:1021F00081E290E00E94B1292A960FB6F894DEBFE2
:102200000FBECDBFDF91CF911F910F91FF90EF9047
:10221000DF90CF90BF90AF909F908F900C94162836
:102220008091010306312CE5120791F58A7A91E03D
:1022300009F490E090932B02882311F065E301C02C
:1022400069E288E892E00E942C270EC006311C4506
:1022500009F094C180912B02882309F482C465E3BC
:1022600088E892E00E941F272A960FB6F894DEBFF6
:102270000FBECDBFDF91CF911F910F91FF90EF90D7
:10228000DF90CF90BF90AF909F908F900C949E2046
:102290008272F801E25CFC45E431F10508F0FAC015
:1022A000EA5AFF4F0C947C2A8091640280FF10C090
:1022B00080914F02809581701F928F938FE694E0FA
:1022C0009F938F930E94C4050F900F900F900F90D3
:1022D00080914F0280FF3FC08E7F80934F026091BC
:1022E0004F027091500280915102909152020E94CF
:1022F000B50A8091640280FF0FC080914F02817007
:102300001F928F9380E094E09F938F930E94C40567
:102310000F900F900F900F900E94FA079FEFE0E749
:10232000F2E09150E040F040E1F700C000002A9652
:102330000FB6F894DEBF0FBECDBFDF91CF911F91D6
:102340000F91FF90EF90DF90CF90BF90AF909F9054
:102350008F900C940908816080934F0280916402F1
:1023600080FF0DC01F9281E08F9388E394E09F93DC
:102370008F930E94C4050F900F900F900F90809143
:102380004F0261E0869572C04CE75CE065E87CE056
:102390002CC045E85CE06CE77CE027C04BED5BE0DF
:1023A00064EE7BE022C044EE5BE06BED7BE01DC0A1
:1023B00043EC5BE06FEC7BE018C04FEC5BE063EC60
:1023C0007BE013C04BEA5BE067EB7BE00EC047EBC2
:1023D0005BE06BEA7BE009C04DEE5BE06EEF7BE01B
:1023E00004C04EEF5BE06DEE7BE02A960FB6F894EA
:1023F000DEBF0FBECDBFDF91CF911F910F91FF9038
:10240000EF90DF90CF90BF90AF909F908F900C9403
:10241000F40761E081E02AC065E082E011C068E075
:1024200086E00EC06EE089E00BC064E18FE008C07A
:1024300067E185E105C061E088E118C062E289E1F9
:102440002A960FB6F894DEBF0FBECDBFDF91CF91B5
:102450001F910F91FF90EF90DF90CF90BF90AF90C2
:102460009F908F900C948F0C61E083E22A960FB6B8
:10247000F894DEBF0FBECDBFDF91CF911F910F91BA
:10248000FF90EF90DF90CF90BF90AF909F908F9094
:102490000C940F0C01302CE51207C1F10E3D3CE508
:1024A000130709F457C001151C4509F067C00E94C5
:1024B00016289FEFE4E3FCE09150E040F040E1F7A4
:1024C00000C0000081E08093E00080E28093D800AB
:1024D0001092C9008FE19EE40197F1F700C000005F
:1024E00087E090EBDC0180930C0390930D03A093A5
:1024F0000E03B0930F039CE088E10FB6F894A89503
:10250000809360000FBE90936000FFCF80916402C3
:10251000982F9095917090FB80F980936402992395
:1025200019F088EB94E002C086EA94E02A960FB690
:10253000F894DEBF0FBECDBFDF91CF911F910F91F9
:10254000FF90EF90DF90CF90BF90AF909F908F90D3
:102550000C942B052A960FB6F894DEBF0FBECDBFA4
:10256000DF91CF911F910F91FF90EF90DF90CF906F
:10257000BF90AF909F908F900C945727F7010081E8
:102580001181992349F0C8010E940821D82E682F93
:10259000C8010E94812104C0C8010E945521D82E83
:1025A000B8018D2D0E94780D8C01982EF701A58021
:1025B000A2942FE0A222D280D11010920003809129
:1025C000FE02877079F0DD2069F080E2800F8830AC
:1025D00048F082E00E94DB218091FE028770CC24CB
:1025E000C3948111C12CB12EB2949FE0B9228B2DDE
:1025F00090E08C30910508F077C2FC01E659FF4F5E
:102600000C947C2A812F807F1F70882311F01295F3
:10261000107FDD20B9F0112309F451C280E2800F50
:10262000883010F0911006C080910103182B109390
:10263000010305C080910003182B109300030E9432
:102640009E203DC2802F0E943628112309F44CC2DF
:10265000005E1095083010F0911006C080910103C3
:1026600018231093010305C08091000318231093D1
:1026700000030E949E2038C2812F807F1F7080320D
:1026800011F01295107F992021F0F1E09F16E1F0F2
:102690002AC0DD2081F080910203AA2051F001E0E0
:1026A000A01207C0182B181709F41EC210930203BA
:1026B0001BC2812B10C0AA2021F021E0A21609F430
:1026C00013C20E94CC2727C0DD2041F035E03A1527
:1026D00008F40AC2812F0E942C2806C284E08A15C1
:1026E00008F402C218C0DD2049F0AA2099F3F701CE
:1026F000858180FFE4C18F708583ECCFAA2059F0DB
:10270000093309F0EEC1FFEF17EE23E0F15010405E
:102710002040E1F7E4C1812F0E942128E5C1812FEB
:1027200086958695837019F0813059F0DDC1DD20E2
:1027300019F0C801937002C080E090E00E94570732
:10274000D9C1DD2019F0C801937002C080E090E08B
:102750000E944107CFC1DD20F9F0053F51F0063F4F
:1027600071F0043FA9F480912C0290912D028160B8
:102770000BC080912C0290912D02826005C0809147
:102780002C0290912D02846090932D0280932C0254
:10279000802F0E94B5251EC0053F51F0063F71F005
:1027A000043FA9F480912C0290912D028E7F0BC0E2
:1027B00080912C0290912D028D7F05C080912C027A
:1027C00090912D028B7F90932D0280932C02802F6D
:1027D0000E94EE240E945E268DC1812F837009F035
:1027E00069C0D11085C1902F929596959770990FD9
:1027F000990F802F8F70882E912CA12CB12C092E2F
:1028000004C0880C991CAA1CBB1C0A94D2F704FFB4
:1028100012C04FE050E060E070E004C0440F551F6C
:10282000661F771F9A95D2F7DB01CA0180959095B4
:10283000A095B09503C080E090E0DC011695169558
:10284000412F4370423019F1C8F4009103031091F5
:1028500004032091050330910603413059F0882983
:102860009929AA29BB29BC01CD01602371238223A8
:1028700093230AC0802A912AA22AB32ABC01CD013F
:10288000682979298A299B290E94152231C1882922
:102890009929AA29BB2900910303109104032091CF
:1028A000050330910603BC01CD0160277127822703
:1028B0009327EACFDD2019F0812F817001C0869522
:1028C000882309F415C1902F929596959770990FCA
:1028D000990F802F8F70882E912CA12CB12C092E4E
:1028E00004C0880C991CAA1CBB1C0A94D2F704FFD4
:1028F00012C04FE050E060E070E004C0440F551F8C
:10290000661F771F9A95D2F7DB01CA0180959095D3
:10291000A095B09503C080E090E0DC011695169577
:10292000412F43704230D9F068F50091FA021091BE
:10293000FB022091FC023091FD02413059F08829C0
:102940009929AA29BB29BC01CD01602371238223C7
:1029500093231EC0802A912AA22AB32A13C0882951
:102960009929AA29BB290091FA021091FB02209112
:10297000FC023091FD02BC01CD0160277127822746
:10298000932706C0BC01CD01682979298A299B2992
:102990000E94AC21ADC01F70DD2039F0812F0E9454
:1029A000F421802F0E942C28A3C0802F0E94212870
:1029B000812F0E94B6219CC0802F32EF931609F41C
:1029C00040C0391538F090EF991661F0E1EF9E168E
:1029D00099F170C0F3EF9F16D9F124EF921609F424
:1029E0004EC068C0DD2019F134E03A1508F47CC00F
:1029F0001F7181E090E0A0E0B0E0AC01BD0104C037
:102A0000440F551F661F771F1A95D2F78091FA025F
:102A10009091FB02A091FC02B091FD028A019B0102
:102A2000082719272A273B27C901B80125C025E017
:102A30002A1508F459C0DCCFDD2029F0812F8F71D1
:102A40002CC0DD20D9F3812F8F710E94B6214CC09C
:102A5000DD2079F01F7181E090E0A0E0B0E0BC01E2
:102A6000CD0104C0660F771F881F991F1A95D2F7F2
:102A700003C060E070E0CB010E94AC2135C0DD20D6
:102A800079F01F71812F0E94F42138E0139FC0015B
:102A9000112483608093FE02812F0E94F42124C0C0
:102AA00081E00E94DB2181E08A15F0F482E00E943F
:102AB000DB211AC0DD2039F0AA2009F4BFCF802F16
:102AC0000E949D2811C0AA2009F4BDCF893349F482
:102AD0009FEFE7EEF3E09150E040F040E1F700C0F7
:102AE0000000802F0E94362888EF8B0D843010F470
:102AF0000E946D07CC20A9F08091FE0280FD11C0DC
:102B0000F70112828595859585950E94F421C7016C
:102B10000E94360F8091FE028595859585950E94CD
:102B2000B62185E0F701DE01119601900D928A959C
:102B3000E1F789819A810E9455219A810BE4809F57
:102B4000F00111241FE0919FE00DF11D11248981F6
:102B5000E80FF11DEE0FFF1FE753FB4F8591949196
:102B600002C069E27DCB2A960FB6F894DEBF0FBE95
:102B7000CDBFDF91CF911F910F91FF90EF90DF902C
:102B8000CF90BF90AF909F908F9008959FB7F8948B
:102B900010926F029FBF90917E02943009F057C04F
:102BA0009091E9009F703091EC00232F217030FD4F
:102BB00020E8922B23E02093E9002091EB0020FFF6
:102BC00043C02091EE0027FF3FC020912E02222318
:102BD00021F02091E80025FF37C010922E0226E058
:102BE0003091E80035FD15C030917E02343061F53A
:102BF0003091EB0035FD28C0215021F481E0809315
:102C00002E0222C0EFE9FFE03197F1F700C000008B
:102C1000E7CF8093F1008091E80085FD0AC08091A4
:102C2000E80080FFFCCF8091E8008E778093E80079
:102C300006C08FB7F89421E020936F028FBF9F707A
:102C40009093E90080E008959F709093E9008FEFE2
:102C500008952091E4003091E50095E64091EC0064
:102C6000842F817040FF23C08091E80080FD1DC04B
:102C700080917E02882399F0853099F08091EB0055
:102C800085FD11C04091E4005091E50024173507FF
:102C900029F3915011F09A01E1CF84E0089582E088
:102CA000089583E0089581E0089580E008954091BB
:102CB000E80042FFDDCF08958091800287FF11C0B8
:102CC0008091E80082FD05C080917E028111F8CFDD
:102CD00011C08091E8008B770BC080917E02882321
:102CE00049F08091E80080FFF8CF8091E8008E776E
:102CF0008093E8000895982F973068F59093E90045
:102D0000981739F07091EC002091ED005091F0008F
:102D100003C0242F762F50E021FD02C09F5FECCF2F
:102D20003091EB003E7F3093EB003091ED003D7F22
:102D30003093ED003091EB0031603093EB007093F5
:102D4000EC002093ED005093F0002091EE0027FD61
:102D5000E5CF80E008958F708093E90081E00895C9
:102D600020918602309187022617370748F06115B7
:102D7000710539F42091E8002E772093E80001C016
:102D8000B901FC0120E06115710579F180917E02A5
:102D90008823F1F18530F1F18091E80083FD3CC09A
:102DA0008091E80082FD2EC08091E80080FFEBCF8B
:102DB0002091F3008091F20090E0922B6115710553
:102DC00051F08830910538F421912093F100615041
:102DD00071090196F3CF21E0089709F020E0809176
:102DE000E8008E778093E800CECF2111CFCF0AC0C4
:102DF00080917E02882361F0853061F08091E80047
:102E000083FD0AC08091E80082FFF2CF80E0089540
:102E100082E0089583E0089581E0089580917E0224
:102E2000843011F081E0089582E00895CF93DF931C
:102E3000CDB7DEB761970FB6F894DEBF0FBECDBF3A
:102E400084B7877F84BF0FB6F894A89580916000FF
:102E5000886180936000109260000FBE90E080E86F
:102E60000FB6F89480936100909361000FBE85B710
:102E7000806885BF85B7806885BF0E94F11E0E946B
:102E8000101F8091E20084608093E20086EC95E15F
:102E900090939D0180939C01789480917E02882379
:102EA000A1F01091E9001F709091EC00892F8170C2
:102EB00090FD80E8182B1092E9008091E80083FDD6
:102EC0000E94D61B1F701093E90082E084BD93E03E
:102ED00095BD9AEF97BD80936E00A7E4B1E041E005
:102EE00050E08D91E82FE295EF70F0E021A18F7016
:102EF0008A0102C0000F111F8A95E2F7C801902FC6
:102F00009095922391A392A1892B82A311E0AC34D6
:102F1000B10739F7ACE4B1E04BE551E061E070E0B6
:102F20008D91E82FE295EF70F0E021A18F708B0179
:102F300002C0000F111F8A95E2F7C801902F9095EB
:102F4000922391A392A1892B82A34A175B0741F791
:102F5000EFE2F2E0AFE3B2E0119211921D921D9206
:102F600012E0E933F107C1F780E090E00E94AB295D
:102F70008C3E9E4F11F00E94572780E090E00E9407
:102F8000AB298C3E9E4F11F00E94572782E090E0C3
:102F90000E949D29809364020E94462790933A02E2
:102FA0008093390283E090E00E949D29682F70E0B1
:102FB00080E090E00E94152280913B028111E0C0E8
:102FC0008091640280FF08C087E397E09F938F930E
:102FD0000E94C4050F900F908091640280FF08C08A
:102FE00081E297E09F938F930E94C4050F900F900A
:102FF00080E090E00E94AB298C3E9E4F81F0809152
:10300000640280FF08C089EF96E09F938F930E942F
:10301000C4050F900F900E9457270E94A10C88E0D2
:1030200090E00E94A52960934F0270935002809314
:103030005102909352026E7FD1F48091640280FF1E
:1030400008C080EB96E09F938F930E94C4050F9079
:103050000F900E94A10C88E090E00E94A529609347
:103060004F027093500280935102909352020E943B
:10307000A20A8091640280FF08C087E996E09F93CE
:103080008F930E94C4050F900F908091640280FF7F
:103090000FC080914F0281701F928F938AE796E054
:1030A0009F938F930E94C4050F900F900F900F90E5
:1030B0008091640280FF0FC080914F0286951F921D
:1030C0008F938FE596E09F938F930E94C4050F9096
:1030D0000F900F900F908091640280FF0EC080913E
:1030E00050021F928F9385E496E09F938F930E94E6
:1030F000C4050F900F900F900F908091640280FF95
:103100000EC0809151021F928F938BE296E09F93A5
:103110008F930E94C4050F900F900F900F90809195
:10312000640280FF0EC0809152021F928F9381E152
:1031300096E09F938F930E94C4050F900F900F907D
:103140000F908091640280FF0EC0809153021F9205
:103150008F9385EF95E09F938F930E94C4050F9006
:103160000F900F900F901092550280914F0280FFA8
:1031700004C060E086950E940F0C81E080933B02C2
:1031800081E191E090933D0280933C0288EA97E0D0
:103190000E942B0580917E02853009F03FC084EAB1
:1031A00097E00E942B0580917E02843021F11092DD
:1031B0003E0220E488E190E00FB6F894A895809351
:1031C00060000FBE2093600083B7817F846083BF5F
:1031D00083B7816083BF7894889583B78E7F83BFE0
:1031E0000FB6F894A8958091600088618093600084
:1031F000109260000FBE80917D02882309F4CACF2F
:103200000E94B00CEFE3F2E081919191892B09F0DB
:1032100081C252E0E934F507B9F7BCCF0E94B00C87
:1032200045E6642E42E0742E5FE3452E52E0552EB3
:1032300000E010E0098BF201A190B1902F01F301A1
:10324000C190D1903F01CA24DB24C114D104B1F450
:103250000F5F1F4F0530110569F78FEF8C878D8742
:103260001E860E9452268160782F988B8F874C850E
:103270005D856E8588890E94A50677C0809164026D
:1032800081FD05C080E0EE24E394F12C48C08EE57A
:1032900097E00E942B052FE3822E22E0922EE12C54
:1032A000F12CFF92EF9229E537E03F932F930E9494
:1032B000C40586E597E00E942B05F40180812180FA
:1032C000F2E08F0E911C0E94BA27382E822D0E94A8
:1032D000BA27232D30E0322F2227A901482BCA011B
:1032E0009F938F9360E577E07F936F930E94C4056F
:1032F0008EE497E00E942B059FEFE91AF90A0FB6BA
:10330000F894DEBF0FBECDBFF5E0EF16F10449F62D
:10331000B9CF8F5FEE0CFF1C8F3009F499CF960167
:103320002E213F21232BA9F38F8329892887AE20C3
:10333000BF2081E0AB2809F480E089870E945226F3
:103340008160782F9B878A874F81588569858B8517
:103350000E94A506000F111FF801EB59FD4F808157
:103360009181E826F926F182E08280915502882336
:1033700009F4ACC080915402E0914F02E695E81B3D
:10338000E0934B02823059F4F0E0EA57F84FE491B1
:103390000E2F10E0FEE8EF2EFAE0FF2E6BC0863015
:1033A00059F4F0E0ED57F84FE4910E2F10E0EEE7FE
:1033B000EE2EEAE0FE2E5EC0893061F4E695F0E084
:1033C000E058F84FE4910E2F10E079EEE72E79E007
:1033D000F72E50C08F3061F4E695F0E0E358F84FD7
:1033E000E4910E2F10E065E8E62E69E0F62E42C06B
:1033F000853159F4F0E0E658F84FE4910E2F10E0D3
:1034000057E3E52E59E0F52E35C08831F9F08332C7
:1034100049F4E8E7F7E00591149144E2E42E4AE02C
:10342000F42E28C08432C9F08532F1F48E2F63E087
:103430000E94482AE92FF0E0EB58F84FE4910E2F54
:1034400010E030E4E32E38E0F32E14C008EE13E071
:1034500024E0E22E29E0F22E0DC004EF11E09AECF8
:10346000E92E98E0F92E06C000ED17E08DECE82E6D
:1034700085E0F82E80914C02882389F010924C024E
:103480000E945226980120953095820F931F9093A9
:103490004A028093490210924E0210924D0280918E
:1034A000490290914A020E9443268017910770F0CA
:1034B000E0914902F0914A020E0F1F1F10934A0239
:1034C0000093490289E492E0F701099586E0EDE571
:1034D000F2E0DE01119601900D928A95E1F780915C
:1034E0005F02811105C080916002882309F46EC0DB
:1034F00080915B0290915C020E9443269C01909116
:103500005A02992309F41CC12333310508F45EC023
:103510009F3F19F09F5F90935A02109261021092A0
:10352000620280915F02181624F40E949525809310
:103530005F0280915F0287FF05C00E9495258195FB
:1035400080935F0280916002181624F40E949525F2
:10355000809360028091600287FF05C00E949525DC
:1035600081958093600230915F023323E1F02091D6
:1035700060022223C1F005EB3003C001112499231E
:1035800019F090935F0203C081E080935F0215EB16
:103590002103C0011124992319F09093600203C004
:1035A00081E0809360020E945E2680915802909193
:1035B000590290935C0280935B0286E0FE01319693
:1035C000ADE5B2E001900D928A95E1F7809161023C
:1035D000811105C080916202882309F46EC0809138
:1035E0005602909157020E9443269C0190915A02E4
:1035F000992309F4AAC02536310508F45EC09F3F1F
:1036000019F09F5F90935A0210925F02109260022D
:1036100080916102181624F40E9473258093610240
:103620008091610287FF05C00E9473258195809378
:10363000610280916202181624F40E94732580931F
:1036400062028091620287FF05C00E947325819506
:1036500080936202309161023323E1F02091620293
:103660002223C1F045EB3403C0011124992319F042
:103670009093610203C081E08093610255EB2503C2
:10368000C0011124992319F09093620203C081E0D4
:10369000809362020E945E268091580290915902A6
:1036A000909357028093560286E0FE013196ADE575
:1036B000B2E001900D928A95E1F70E946D0790911A
:1036C0006302891709F466CD0E946D07182F809355
:1036D00063028091640282FF5DCD80FF04C081E9B6
:1036E00097E00E942B058091640280FF0CC01F921E
:1036F0001F936CE877E07F936F930E94C4050F904F
:103700000F900F900F908091640280FF43CD8AE864
:1037100097E03ECD80E189BD82E189BD09B400FE1C
:10372000FDCF8091D8008F7D8093D8008091E000FC
:1037300082608093E0008091E00081FDFCCF2ACD83
:103740002D32314008F0E6CE41CF2D32314008F025
:1037500058CFB3CFEF92FF920F931F93CF93DF9386
:103760007C018B010E942916811119C0E701011506
:103770001105A1F08091E80085FD0AC08091E80064
:103780008E778093E8000E942916882381F307C072
:1037900089918093F10001501109E9CF80E0DF9118
:1037A000CF911F910F91FF90EF9008951F93CF93AA
:1037B000DF93CDB7DEB7AA970FB6F894DEBF0FBE82
:1037C000CDBFE0E8F2E088E892E02091F10021939B
:1037D0008E179F07D1F780918102833009F460C072
:1037E00030F4813071F0823009F49AC0B1C08A306F
:1037F00009F486C08B3009F46BC0893009F0A8C089
:1038000020C080918002813A09F0A2C08091E80036
:10381000877F8093E8008091840290918502892BB4
:1038200021F468E084E792E003C060E080E090E08B
:1038300070E00E94B0168091E8008B778093E800DA
:1038400087C080918002813209F082C08091840219
:1038500090918502029708F07BC08091E800877FF5
:103860008093E8008091E80082FD05C080917E028F
:103870008111F8CF6DC02091F3008091F20090E0AB
:10388000922B029729F48091F1008B7F813021F4F3
:103890008091F100809373028091E8008B7754C08F
:1038A00080918002813A09F053C080918402909106
:1038B0008502892B09F04CC08091E800877F8093B6
:1038C000E8008091E80080FFFCCF80911B0137C0A9
:1038D000809180028132E1F580918402909185028D
:1038E000892BB1F58091E800877F8093E8000E94E2
:1038F0005C168091820280931B010E94162828C0CA
:1039000080918002813221F58091E800877F809349
:10391000E8000E945C16809183028093720218C0B6
:1039200080918002813AA1F48091E800877F8093A2
:10393000E8008091E80080FFFCCF809172028093C4
:10394000F1008091E8008E778093E8000E945C1679
:103950008091E80083FFE3C1809180029091810211
:10396000492F50E04A30510508F0D9C1FA01EA5810
:10397000FF4F0C947C2A803821F0823809F0CFC1A7
:1039800008C080917C0290917D02992389F0826029
:103990000FC0809184028F70873008F0C0C180937F
:1039A000E9008091EB0085FB882780F91092E900FF
:1039B0009091E800977F9093E8008093F100109237
:1039C000F1007BC1282F2D7F09F0A9C1882319F0B0
:1039D000823061F0A4C180918202813009F09FC1E0
:1039E000933009F080E080937D022EC080918202A6
:1039F00081112AC0809184028F702FEF280F26300A
:103A000008F08DC18093E9002091EB0020FF1CC0DD
:103A1000933021F48091EB00806214C09091EB0010
:103A200090619093EB0021E030E0A90102C0440FC7
:103A3000551F8A95E2F74093EA001092EA008091C0
:103A4000EB0088608093EB001092E9008091E80021
:103A5000877F8093E8000E945C1661C181115FC17D
:103A6000109182021F778091E3008078812B8093F0
:103A7000E3008091E800877F8093E8000E945C1655
:103A80008091E80080FFFCCF8091E3008068809304
:103A9000E300111102C082E001C083E080937E0246
:103AA0003EC18058823008F03AC1209182023091A4
:103AB00083022C3D53E0350779F583E08A838AE25F
:103AC00089834FB7F894DE01139620E03EE051E27F
:103AD000E32FF0E050935700E49120FF03C0E295FC
:103AE000EF703F5FEF708E2F90E0EA3010F0C796D6
:103AF00001C0C0968D939D932F5F243149F74FBF2E
:103B00008091E800877F8093E8006AE270E0CE0150
:103B100001960E94B016C0C08091840290918502E7
:103B2000432F552743305105B1F068F4413051051A
:103B300009F404C14230510509F0F1C08BE590E071
:103B4000E0EBF8E057C04132510589F142325105AE
:103B500009F43CC0E4C0C901992781309105B9F04E
:103B600070F082309105D9F0039709F0D8C0EDE1EB
:103B7000F9E0E4918E2F90E0EDE1F9E038C0E3E464
:103B8000F9E0E4918E2F90E0E3E4F9E030C0E1E366
:103B9000F9E0E4918E2F90E0E1E3F9E028C0E3E260
:103BA000F9E0E4918E2F90E0E3E2F9E020C0833069
:103BB000910508F0B4C0880F991FFC01EC59FE4F25
:103BC0000190F081E02D89E090E014C083309105F0
:103BD00008F0A5C0FC01EE0FFF1FE25AFE4F019056
:103BE000F081E02DDC01A55ABE4F8C9190E000974A
:103BF00009F495C02091E800277F2093E8002091E8
:103C00008602309187022817390708F4C90140E07D
:103C1000009789F120917E02222309F43DC02530CE
:103C2000D9F12091E80023FD37C02091E80022FD62
:103C30002FC02091E80020FFEBCF4091F3002091AE
:103C4000F20030E0342B009759F02830310540F471
:103C500044914093F100319601972F5F3F4FF3CF8E
:103C600041E02830310509F040E02091E8002E774E
:103C70002093E800CDCF4111CDCF0AC080917E02C4
:103C8000882351F0853041F08091E80083FD04C025
:103C90008091E80082FFF2CF8091E8008B778093DB
:103CA000E8003DC08038D9F58091E800877F809397
:103CB000E80080917F028093F1008091E8008E7788
:103CC000C8CE81112CC080918202909183029927E5
:103CD00002972CF58091E800877F8093E80010918F
:103CE000820210937F020E945C16111106C080911F
:103CF000E30087FD02C081E001C084E080937E0282
:103D000042E061EC81E00E947B1642E261EC82E0DD
:103D10000E947B1642E261EC83E00E947B16809158
:103D2000E80083FF10C08091E800877F8093E8005F
:103D30008091EB0080628093EB0005C082E190E00F
:103D4000EBE0F9E057CFAA960FB6F894DEBF0FBEAE
:103D5000CDBFDF91CF911F9108951F920F920FB6A3
:103D60000F9211242F933F934F935F936F937F9301
:103D70008F939F93AF93BF93CF93DF93EF93FF9373
:103D8000C091E900CF708091EC00D82FD17080FDF8
:103D9000D0E81092E9008091F000877F8093F000D6
:103DA00078940E94D61B1092E9008091F000886000
:103DB0008093F000CD2BCF70C093E900FF91EF917D
:103DC000DF91CF91BF91AF919F918F917F916F9133
:103DD0005F914F913F912F910F900FBE0F901F90C9
:103DE0001895E8EDF0E080818E7F80831092E200EC
:103DF0001092DA001092E100A0EEB0E08C918160A8
:103E00008C9380818F77808319BCA7EDB0E08C9173
:103E10008E7F8C9380818F7E8083109271020895B3
:103E2000CF92DF92EF92FF920F931F93CF93DF9386
:103E3000C8EDD0E088818F7E8883E7EDF0E0808157
:103E40008160808384E082BF81E0809371028881F9
:103E50008E7F888302EE10E0F80110821092DA0063
:103E600081EEC82ED12CF601108288818F7788834D
:103E700088818068888388818F7D888319BC1092AF
:103E80007E0210927F0210927D0210927C0290EED0
:103E9000E92EF12CF70180818B7F808388818160FE
:103EA000888342E060E080E00E947B16F60180811A
:103EB0008E7F8083F801808181608083808188602B
:103EC0008083F70180818E7F8083888180618883F1
:103ED000DF91CF911F910F91FF90EF90DF90CF90E6
:103EE00008951F920F920FB60F9211242F933F93B4
:103EF0004F935F936F937F938F939F93AF93BF93F2
:103F0000EF93FF938091E10082FF49C08091E2002E
:103F100082FF45C08091E1008B7F8093E10020917A
:103F200070022F5F822F62E30E94482A992319F0C2
:103F30002093700234C01092700280916F02882327
:103F400071F180917E02843041F58091E9008F709B
:103F50002091EC00922F917020FD90E8892B93E046
:103F60009093E9009091EB0090FF14C09091EE00C7
:103F700097FF10C09091E80095FF03C01092F100E8
:103F8000F9CF9091E80090FF05C09091E8009E77EE
:103F90009093E8008F708093E90010926F028091F7
:103FA000DA0080FF32C08091D80080FF2EC080915F
:103FB000DA008E7F8093DA008091D90080FF1CC0E8
:103FC00080E189BD82E189BD09B400FEFDCF81E0B9
:103FD00080937E028CE998E00E942B05809171020B
:103FE000811113C00E94F11E0E94101F8091E200F7
:103FF00084608093E20009C019BC10927E0280EABE
:1040000098E00E942B05109271028091E10080FFE0
:104010001BC08091E20080FF17C08091E2008E7F7C
:104020008093E2008091E20080618093E2008091C1
:10403000D80080628093D80019BC85E080937E020E
:1040400084EA98E00E942B058091E10084FF36C04D
:104050008091E20084FF32C080E189BD82E189BDA8
:1040600009B400FEFDCF8091D8008F7D8093D800E9
:104070008091E1008F7E8093E1008091E2008F7E4D
:104080008093E2008091E20081608093E200809161
:104090007F02882311F084E007C08091E30087FD50
:1040A00002C081E001C083E080937E0288EA98E04C
:1040B0000E942B050E9416280E946D078091E10046
:1040C00083FF2BC08091E20083FF27C08091E10035
:1040D000877F8093E10082E080937E0210927F02CE
:1040E0008091E1008E7F8093E1008091E2008E7FDD
:1040F0008093E2008091E20080618093E20042E0E0
:1041000060E080E00E947B168091F00088608093E0
:10411000F0008CEA98E00E942B05FF91EF91BF918F
:10412000AF919F918F917F916F915F914F913F914F
:104130002F910F900FBE0F901F901895EF92FF9246
:104140000F931F93CF939091010380910003892BCC
:104150002091FF02982F922B909388028091020366
:10416000882389F0892B80938802EAE8F2E097E0BF
:1041700080E0915029F021912223D9F38F5FF9CF6C
:1041800081110E94CC27E0913C02F0913D023097D2
:10419000C9F10280F381E02D88E892E009958091D1
:1041A000640282FF2FC080FF04C08FE499E00E9468
:1041B0002B0508E812E0C8E089E4E82E89E0F82E33
:1041C0008091640280FF0CC0F80180811F928F9360
:1041D000FF92EF920E94C4050F900F900F900F90E6
:1041E000C1500F5F1F4FC111EBCF8091640280FF60
:1041F00009C087E499E0CF911F910F91FF90EF9054
:104200000C942B05CF911F910F91FF90EF90089583
:10421000BF92CF92DF92EF92FF920F931F93CF93B3
:10422000DF938C01C090FA02D090FB02E090FC0278
:10423000F090FD028091030390910403A091050387
:10424000B0910603C82AD92AEA2AFB2ACFE1D0E096
:10425000D701C6010C2E04C0B695A79597958795F2
:104260000A94D2F780FD04C0219790F7B12C07C0C3
:10427000BC2EB8018C2F0E94780D0197A9F38B2DCD
:10428000DF91CF911F910F91FF90EF90DF90CF9032
:10429000BF900895CF93DF93EC010E940821BE01E7
:1042A0000E94780DDF91CF9108952FE0929F800DAD
:1042B0001124682F669566956695982F977085E00E
:1042C000689FB001112440E050E080E0FB01E40F62
:1042D000F51FE853FD4F208130E0092E02C03695CE
:1042E00027950A94E2F721703327042E01C0220F8C
:1042F0000A94EAF7822B4F5F5F4F4530510531F743
:1043000008952FE0929F800D1124E82FE695E69501
:10431000E695877051E001C0550F8A95EAF785E070
:10432000E89FF0011124E853FD4F20E030E070E0F9
:104330004081CB01022E02C0969587950A94E2F740
:104340008170819584278523842781932F5F3F4F38
:104350002530310569F708956093FA027093FB02E6
:104360008093FC029093FD020C94FB270F931F9304
:1043700041E050E060E070E004C0440F551F661F4C
:10438000771F8A95D2F740955095609570958091EA
:10439000FA029091FB02A091FC02B091FD028A0109
:1043A0009B01082319232A233B23C901B8011F912C
:1043B0000F910C94AC212091FE0280958223809372
:1043C000FE02982F977079F430E0482F082E000CE9
:1043D000550B2417350739F08595859585950E94ED
:1043E000B6211092FE0208950F931F9341E050E012
:1043F00060E070E004C0440F551F661F771F8A9568
:10440000D2F78091FA029091FB02A091FC02B09148
:10441000FD028A019B01082B192B2A2B3B2BC9017A
:10442000B8011F910F910C94AC216093030370931A
:10443000040380930503909306030C94FB2780915B
:10444000C70290919602891719F08F5F8770FBCF92
:1044500008950F931F93CF93DF93809195028295D8
:104460008F7009F05DC080919202882309F458C0D2
:104470008091C70210919602609190027091910212
:10448000C0919302D091940291E06F3F09F090E0C7
:10449000292F06E0811709F443C0209721F07F3FC0
:1044A00021F030E003C031E001C0322F90E030FD58
:1044B00034C0089FF001099FF00D1124DF01A956B7
:1044C000BD4F11963C911197371327C03C9136137D
:1044D00024C012963C91129731111FC013964D9132
:1044E0005C9114974C1B5D0B483C5105B0F48091D6
:1044F00095028F70806180939502E456FD4F808114
:104500008F708061808380E992E00E94360FDF9196
:10451000CF911F910F910C941F2201968770BACFF3
:10452000DF91CF911F910F9108959F92AF92BF920B
:10453000CF92DF92EF92FF920F931F93CF93DF936F
:10454000CDB7DEB761970FB6F894DEBF0FBECDBF13
:104550008C0185E0F801DE011D9601900D928A958F
:10456000E1F7F80190818181E280309190026091C1
:10457000910240919302509194024115510531F0FE
:104580006F3F31F421E03F3F19F403C021E001C047
:1045900020E0F22FF1709F2E20FD23C1F801C3808F
:1045A000D48020E9A22E22E0B22EF0909202F601F1
:1045B000E41BF50BFF2009F4CEC020919502E83CE6
:1045C000F10508F099C0422F407F09F051C06813EF
:1045D00011C039130FC0FE2CE1100CC02F702061E8
:1045E00020939502C5010E94360F80919502F80133
:1045F000858337C1CD2831F08F3F31F421E09F3FD3
:1046000019F403C021E001C020E020FD03C021E037
:104610002E2502C020E030E0F22FF170FF2E20FFA7
:104620001DC02091C7024091960256E0241709F45C
:10463000F6C030E0529FF001539FF00D1124E9566F
:10464000FD4F6181861306C06081961303C06281AD
:10465000E61204C02F5F3F4F2770E8CFFE2CEE20FC
:1046600009F4FFC08091950281608093950250C04B
:10467000681307C0391305C0E11003C0F801258392
:104680008DC09D878E878D859E850E94D227882329
:1046900069F1EE2059F120919502822F82958F7059
:1046A00090E0029774F08091900290919102988727
:1046B0008F831986DB86CA862C87CE0107960E94D7
:1046C000360F86E0F801A0E9B2E001900D928A95DC
:1046D000E1F70E9429220DC06817E1F09D878E87BF
:1046E0008D859E850E94D22781111EC0C8010E941F
:1046F000360FFF24F394B5C0422F407F69F780E95D
:1047000092E00E94360F86E0F50111928A95E9F752
:10471000F12CA7C03913E2CFE110E0CFF8012583D7
:10472000C8010E94360F57C0EE2001F32091950278
:10473000822F82958F7090E002971CF280919002F8
:10474000909191029A8389831B82DD82CC822E8391
:10475000CE010196B4CFE83CF105E8F5FE2CEE2041
:1047600029F2681327C0391325C02091950220FD36
:1047700018C0822F82958F70482F50E04115510547
:1047800081F0F80125834F30510541F08F5F982F5C
:104790009295907F822F8F70892B8583C8010E940C
:1047A000360F86E0F801A0E9B2E001900D928A95FB
:1047B000E1F757C09D878E878D859E850E94D22701
:1047C00081117FCF80919502816080939502C8010D
:1047D0000E94360F46C086E0F50111928A95E9F7EE
:1047E00040C0EE2009F482CF9D878E878D859E85FF
:1047F0000E94D227F82E882309F478CF86E0F801AA
:10480000A0E9B2E001900D928A95E1F780919002C3
:10481000909191020E944A210E94292222C09D87E4
:104820008E878D859E850E944A21292F22952F7083
:10483000223028F49F7039F0811105C00BC024305C
:1048400028F49F7049F4805E883020F0C8010E94EF
:10485000360F9F2CF92C05C0F8019581907F99F7B0
:10486000F9CF8F2D61960FB6F894DEBF0FBECDBF86
:10487000DF91CF911F910F91FF90EF90DF90CF903C
:10488000BF90AF909F900895809173020895CF9349
:10489000DF9300D01F92CDB7DEB790917E029430A7
:1048A00019F589837B836A8382E08093E9008FEF27
:1048B0009091E800815095FD06C095ED9A95F1F72D
:1048C00000008111F5CF8091E80085FF0DC040E028
:1048D00050E063E070E0CE0101960E94AA1B809137
:1048E000E8008E778093E8000F900F900F90DF9193
:1048F000CF910895CF93DF93EC010E940E17823081
:1049000011F0843031F4BE0184E0DF91CF910C943A
:104910004724DF91CF910895BC0183E00C94472494
:10492000CF93DF93EC010E940E17823011F0843098
:10493000F9F482E08093E9008FEF9091E8008150D4
:1049400095FD06C095ED9A95F1F700008111F5CF20
:104950008091E80085FF0CC040E050E066E070E028
:10496000CE010E94AA1B8091E8008E778093E80018
:10497000DF91CF910895CF93DF93EC010E940E1742
:10498000823011F0843039F581E08093E9008FEFB7
:104990009091E800815095FD06C095ED9A95F1F74C
:1049A00000008111F5CF8091E80085FF14C040E040
:1049B00050E068E070E0CE010E94AA1B8091E80000
:1049C0008E778093E80088E0FE01A4E7B2E00190D2
:1049D0000D928A95E1F7DF91CF910895803F39F4E8
:1049E0008091600287FF6CC01092600269C0813FB5
:1049F00029F4809160021816BCF362C090915F02A6
:104A0000823F29F497FF5CC010925F0259C0833F38
:104A100019F41916CCF354C0893F41F48091610216
:104A200018160CF04DC0109261024AC08A3F29F45A
:104A30008091610287FF44C0F6CF8B3F39F48091AB
:104A4000620287FF3DC0109262023AC08C3F29F497
:104A5000809162021816BCF333C0843F21F4809128
:104A60005E028E7F17C0853F21F480915E028D7FAC
:104A700011C0863F21F480915E028B7F0BC0873F7F
:104A800021F480915E02877F05C0883F31F48091D8
:104A90005E028F7E80935E0213C08D3F21F4809171
:104AA0000B038E7F0BC08E3F21F480910B038D7F13
:104AB00005C08F3F29F480910B038B7F80930B03FC
:104AC00080915F0281110EC08091600281110AC045
:104AD00080916102811106C080916202811102C041
:104AE00010925A02089580910B0380FD16C081FD3B
:104AF00016C082FD18C080915A02882391F0883236
:104B000090F428E0829FC001112468E270E00E94C6
:104B1000682A862F672B29F007C082E0089584E079
:104B2000089581E0089588E0089580910B0380FD49
:104B300014C081FD14C082FD16C080915A028823E2
:104B400081F0843180F422E3829FC001112464E16A
:104B500070E00E94682A862F08958CE0089589E10C
:104B6000089585E0089582E30895803F21F40E942E
:104B70009525819504C0813F29F40E949525809355
:104B800060020895823F21F40E949525819504C01A
:104B9000833F29F40E94952580935F020895893F01
:104BA00019F40E94732505C08A3F31F40E947325D1
:104BB00081958093610208958B3F21F40E947325B3
:104BC000819504C08C3F29F40E9473258093620272
:104BD0000895843F21F480915E02816017C0853F73
:104BE00021F480915E02826011C0863F21F48091A1
:104BF0005E0284600BC0873F21F480915E02886072
:104C000005C0883F31F480915E02806180935E022E
:104C100008958D3F21F480910B0381600BC08E3F7E
:104C200021F480910B03826005C08F3F29F48091AD
:104C30000B03846080930B03089578941F920F9266
:104C40000FB60F9211248F939F93AF93BF938091D0
:104C5000070390910803A0910903B0910A030196FC
:104C6000A11DB11D8093070390930803A09309032E
:104C7000B0930A03BF91AF919F918F910F900FBE98
:104C80000F901F9018959C014FB7F89480910703DF
:104C900090910803A0910903B0910A034FBF821BB2
:104CA000930B08952FB7F894809107039091080310
:104CB000A0910903B0910A032FBF08958091640267
:104CC00083FF7EC088E899E00E942B0580915E02F8
:104CD0001F928F9383E899E09F938F930E94C4055E
:104CE00081E899E00E942B0580915F02282F082E11
:104CF000000C330B3F938F938EE799E09F938F9334
:104D00000E94C4058CE799E00E942B058091600207
:104D1000282F082E000C330B3F938F9389E799E0DF
:104D20009F938F930E94C40587E799E00E942B050B
:104D300080916102282F082E000C330B3F938F9334
:104D400084E799E09F938F930E94C40582E799E0DE
:104D50000E942B0580916202282F082E000C330B35
:104D60003F938F938FE699E09F938F930E94C405A2
:104D70008CE699E00E942B0580915A021F928F9336
:104D800089E699E09F938F930E94C40587E699E096
:104D90000E942B0580910B031F928F9384E699E06C
:104DA0009F938F930E94C40581E699E00E942B0592
:104DB0008DB79EB74C960FB6F8949EBF0FBE8DBFB1
:104DC000E0913C02F0913D02309749F082E08093FF
:104DD0005D020480F581E02D8DE592E009950E9449
:104DE0005226909359028093580208951F920F9271
:104DF0000FB60F9211248F939F93AF93BF9380911F
:104E00003E02811113C08091070390910803A09185
:104E10000903B0910A034196A11DB11D80930703B8
:104E200090930803A0930903B0930A03BF91AF9135
:104E30009F918F910F900FBE0F901F9018959C011E
:104E40002A5F3F4FFC014281461301C01282019646
:104E500082179307B9F708959C01FC0132969FEFE2
:104E600080E04191461789F09F3F19F4411101C03C
:104E7000982F8F5F8630A9F79F3F39F0F901E90F2E
:104E8000F11D97FDFA95628308950895CF9384E00C
:104E900090E00E949D29C82F81E290E00E949D2908
:104EA0002C2F30E0A901582BCA01CF9108956CEE48
:104EB0007EEF80E090E00E94CF2960E082E090E009
:104EC0000E94B12960E083E090E00E94B129109235
:104ED000030310920403109205031092060360E08E
:104EE00084E090E00E94B12960E081E290E00E94BD
:104EF000B12960E085E090E00E94B12960E086E0A1
:104F000090E00E94B1296FEF87E090E00E94B12904
:104F100040E050E0BA0188E090E00E94C32960E0E0
:104F20008DE090E00E94B12940E050E0BA0188E1B4
:104F300090E00E94C32960E087E190E00E94B129DF
:104F400040E050E0BA018CE190E00E94C32960E0AB
:104F500080E290E00E94B12940E050E0BA018FE089
:104F600090E00E94C32940E050E0BA0183E190E064
:104F70000C94C3298295982F937344E0949F9001D9
:104F800011248C7C86958695282B822F8575880F19
:104F90002A7A2695822B089580910203811110921E
:104FA000020308950E944A21292F2F70E92FE295CC
:104FB000EF704E2F50E0FA013297EE30F105B8F461
:104FC000E058FF4F0C947C2A803F99F018F4883EFB
:104FD00070F40FC0843F59F40CC0883E50F0813FFC
:104FE00031F407C0822F869586958695089580E0D6
:104FF000089581E00895109200031092FF020E942C
:105000009E20EDE5F2E086E0DF011D928A95E9F74A
:1050100010925A0210920B030E945E2680E090E0EC
:105020000E94570780E090E00C9441071092010322
:1050300086E0EAE8F2E0DF011D928A95E9F70C9438
:10504000FB27882341F08095909101038923809369
:1050500001030C949E200895882339F09091010358
:10506000892B809301030C949E200895882309F4D2
:1050700063C0823869F40E946D0781FF5DC069E3F7
:1050800088E892E00E942C270E949E2069E30EC0CF
:10509000833891F40E946D0780FF4EC063E588E875
:1050A00092E00E942C270E949E2063E588E892E00F
:1050B0000E941F270C949E20843869F40E946D077B
:1050C00082FF3AC067E488E892E00E942C270E94A1
:1050D0009E2067E4EBCF9CEF980F913A10F4682F75
:1050E000E5CF90E2980F983088F4877021E030E0A7
:1050F000A90102C0440F551F8A95E2F7CA018095A5
:1051000090910103892380930103D4CF9BE5980FED
:10511000933020F480E090E00C94570798E5980FC6
:10512000973120F480E090E00C944107803F20F01C
:105130000E94EE240C945E260895CF93882309F4F0
:105140009EC0C82F8238B1F40E946D0781FD97C0C0
:1051500069E388E892E00E942C270E949E202FEFAE
:1051600081EE94E0215080409040E1F700C00000C3
:1051700069E317C08338E1F40E946D0780FD7FC0AA
:1051800063E588E892E00E942C270E949E202FEF82
:1051900081EE94E0215080409040E1F700C0000093
:1051A00063E588E892E00E941F27CF910C949E202F
:1051B0008438B1F40E946D0782FD61C067E488E81D
:1051C00092E00E942C270E949E202FEF81EE94E017
:1051D000215080409040E1F700C0000067E4E1CF3B
:1051E0008CEF8C0F813A80F4EAE8F2E080E992E0FB
:1051F0002191C217E1F18E179F07D1F76C2F88E834
:1052000092E00E942C27D1CF80E28C0F883068F486
:10521000C77081E090E001C0880FCA95EAF79091CD
:105220000103892B80930103C0CFEBE5EC0FE33042
:1052300040F4F0E0E659FE4F808190E0CF910C946D
:105240005707E8E5EC0FE73150F4F0E0EE0FFF1FF1
:10525000E359FE4F80819181CF910C944107C03F6B
:1052600070F08C2F0E94B525CF910C945E266C2F88
:1052700088E892E00E941F270E949E20BFCFCF9116
:1052800008958F929F92AF92BF92CF92DF92EF924A
:10529000FF92CF93DF93EC01688179818A819B81B2
:1052A000611571058105910521F464E279ED8BE5C5
:1052B00097E02DE133EF41E050E00E94E5294901FC
:1052C0005A019B01AC01A7EAB1E40E94042A6B01D8
:1052D0007C01ACEEB4EFA50194010E94122ADC011E
:1052E000CB018C0D9D1DAE1DBF1DB7FF03C00197E7
:1052F000A109B04888839983AA83BB839F77DF91F4
:10530000CF91FF90EF90DF90CF90BF90AF909F90A4
:105310008F9008950E944129089580E091E00E94B5
:1053200041290895A0E0B0E080930001909301012D
:10533000A0930201B09303010895F999FECF92BDA5
:1053400081BDF89A992780B50895A6E1B0E044E0C0
:1053500050E00C94D729A8E1B0E042E050E00C9472
:10536000D729262FF999FECF92BD81BDF89A0197D2
:1053700000B4021639F01FBA20BD0FB6F894FA9A9D
:10538000F99A0FBE08950396272F0E94B2290E9412
:10539000B129252F0E94B229242F0C94B2290196FD
:1053A000272F0E94B2290C94B129DC01CB01FC010A
:1053B000F999FECF06C0F2BDE1BDF89A319600B46E
:1053C0000D9241505040B8F70895052E97FB1EF4FA
:1053D00000940E94FC2957FD07D00E94172A07FC61
:1053E00003D04EF40C94FC295095409530952195AE
:1053F0003F4F4F4F5F4F0895909580957095619501
:105400007F4F8F4F9F4F08950E94392AA59F900D7F
:10541000B49F900DA49F800D911D11240895B7FF96
:105420000C94042A0E94042A821B930B0895A1E283
:105430001A2EAA1BBB1BFD010DC0AA1FBB1FEE1F0E
:10544000FF1FA217B307E407F50720F0A21BB30B59
:10545000E40BF50B661F771F881F991F1A9469F7D5
:1054600060957095809590959B01AC01BD01CF0131
:105470000895A29FB001B39FC001A39F700D811D2D
:105480001124911DB29F700D811D1124911D08954D
:10549000991B79E004C0991F961708F0961B881F86
:1054A0007A95C9F780950895AA1BBB1B51E107C0E7
:1054B000AA1FBB1FA617B70710F0A61BB70B881FA4
:1054C000991F5A95A9F780959095BC01CD01089533
:1054D00097FB072E16F4009407D077FD09D00E94A1
:1054E000542A07FC05D03EF4909581959F4F08956E
:1054F000709561957F4F0895EE0FFF1F0590F49111
:10550000E02D0994FC014150504030F00190061606
:10551000D1F73197CF010895882799270895F894F6
:02552000FFCFBB
:105522000100000001191A1B1C1D1E1F202122014F
:10553200024424BB2490248C247A24010001020218
:1055420002020606060909090909090F0F0F0F0FC2
:105552000F151515181919191919191919191923C6
:10556200242525252525253033673666F6F5F4F101
:10557200C6959392919094969734354081225C0817
:10558200DB07B907C208DB08F408818283E200E97D
:1055920000EA00B500B600B700CD008301CC008A56
:1055A20001920194012102230224022502260227EC
:0C55B200022A02B300B4006F0070000079
:00000001FF
