:100000000C94F6010C943D020C943D020C943D02BC
:100010000C943D020C943D020C943D020C943D0264
:100020000C943D020C943D020C9430200C9402215F
:100030000C941E170C943D020C943D020C943D024E
:100040000C943D020C943D020C943D020C943D0234
:100050000C943D020C946B170C943D020C943D02E1
:100060000C943D020C943D020C943D020C943D0214
:100070000C943D020C943D020C943D020C943D0204
:100080000C943D020C943D020C943D020C943D02F4
:100090000C943D020C943D020C943D020C943D02E4
:1000A0000C943D020C943D020C943D027F0C7F0C9D
:1000B000B10CB10CFE0C1C0D3D0E3D0E270DBC0D00
:1000C000CD0DCD0D2D0E3D0E3D0E360EDD0EDD0E91
:1000D000EF0EEF0EE60EEF0EEF0EEF0EDD0EDD0E65
:1000E000EB0EEF0EEF0EEB0E6F2196218E22962176
:1000F0008E22E22105228E225C226B2214001A003D
:100100000800150017001C0018000C001200130056
:1001100004001600070009000A000B000D000E0085
:100120000F0029001D611B64064319442A422C411B
:1001300005451174107128721E001F002000210057
:100140002200230024002500260027003A003B005F
:100150003C003D003E003F004000410042004300A3
:1001600001000100010001004C000100010001003C
:10017000010001001E021F022002210222022302AE
:100180002402250226022702350001002E00440029
:1001900001000100010001002F00300001000100FA
:1001A0000100010001000100010001002F023002E6
:1001B000010001000100010001002D002E002F00B0
:1001C000300031002B000100010001000100360069
:1001D0003700380033003400010001000100010045
:1001E000010001005000510052004F0001000100C9
:1001F0000100010001002D022E022F023002310207
:100200002B00010001000100010036023702380214
:10021000330234020100010001000100010001006D
:100220004A004E004B004D00B200B500B100B300D3
:100230000100010001000100010046000100010071
:10024000010001000100010001000100BD5CBE5C75
:100250000100010001000100005C0100010001003B
:100260000100010004033000000010034700680093
:10027000650072006B0069006E000000200334000E
:1002800030002000500065007200630065006E00C1
:100290007400200043006C0075006200000004033D
:1002A000090409023B00020100A0FA090400000150
:1002B000030101000921110100012240000705810D
:1002C0000308000A090401000103000000092111CC
:1002D00001000122BC000705820320000A12011060
:1002E0000100000008EDFE6060010001020301054D
:1002F000010902A10185020901A1000509190129CD
:10030000051500250195057501810295017503818B
:10031000010501093009311581257F950275088194
:100320000609381581257F950175088106050C0A97
:1003300038021581257F950175088106C0C0050129
:100340000980A101850319012AB700150126B7000C
:10035000950175108100C0050C0901A101850419E2
:10036000012AA002150126A002950175108100C086
:1003700005010906A1018505050719E029E7150012
:1003800025019508750181020507190029EF15005F
:10039000250195F0750181020508190129059505CA
:1003A00075019102950175039101C005010906A12E
:1003B00001050719E029E715002501950875018158
:1003C000029501750881010507190029FF1500260E
:1003D000FF00950675088100050819012905950596
:1003E00075019102950175039101C00011241FBE92
:1003F000CFEFDAE0DEBFCDBF04B603FE27C08091A9
:10040000600290916102A0916202B0916302873014
:10041000904BA740B04BD1F4109260021092610251
:10042000109262021092630214BE84B7877F84BF69
:100430000FB6F894A8958091600088618093600061
:10044000109260000FBEE0E0F8E3099511E0A0E033
:10045000B1E0E0E0F7E402C005900D92A238B107E8
:10046000D9F722E0A2E8B1E001C01D92A036B207A0
:10047000E1F70E945F1D0C947E230C94000081E044
:10048000089581E008950C94410208950C9445026A
:100490001F93CF93DF9300D000D01F92CDB7DEB76C
:1004A00049835A836B833091950189819A813111F7
:1004B00014C0662359F0222349F00E941814182F03
:1004C000682F89819A810E94BF1303C00E94EB1399
:1004D000182F69817A81812F04C00E9418146981C4
:1004E0007A810F900F900F900F900F90DF91CF9126
:1004F0001F910C940203FC01262F408151816281DF
:10050000738184810C944802CF93DF93EC0160E007
:100510000E947B02BE01DF91CF910C9446020E94A3
:100520004A15811102C00E94FD150E949E070C947D
:100530001E050C941A0508950C949B0281E0089501
:100540000C949E02CF93C82F0E949C028C2F0E9475
:10055000A002CF91089508950E94CB0E0E94AB0295
:100560002FEF84E39CE0215080409040E1F700C0F1
:1005700000000C9491170F931F93CF93DF93EC011E
:1005800061E00E947B028C01BE010E94430288232D
:1005900079F1BE01C8010E940707882349F1BE0115
:1005A000C8010E942208882319F1BE01C8010E94D7
:1005B00063088823E9F0BE01C8010E948E098823E0
:1005C000B9F08A81882369F001158CE5180731F0AC
:1005D0000E3D1C4531F40E94FD150AC00E94AC027C
:1005E00007C0CE01DF91CF911F910F910C943F0274
:1005F00080E0DF91CF911F910F91089580E090E00E
:10060000089508952EE1829FC0011124FC0126E087
:10061000729FE00DF11D1124E60FF11DEE0FFF1F7B
:10062000E450FF4F859194910895880F991FFC0124
:10063000EC59FD4F859194910895CF93DF930E94DB
:1006400002030E943504EC018115904508F041C079
:10065000C11580E4D80708F0D1C0C83ED10510F517
:10066000C03ED10508F0FDC0C83AD10578F4C53ABE
:10067000D10508F0A2C0C130D10509F4F2C008F4D8
:10068000EEC0C430D10508F0ECC0E9C0CF3BD105C5
:1006900008F49BC0C03CD10508F4E1C0CE01805CE9
:1006A00091099EC0C11590E2D90758F4C11521E007
:1006B000D20708F0D6C0C03FD10508F4D0C0D0653D
:1006C000D0C0C11580E3D80708F08EC0CE019F705E
:1006D00087C0C11595E5D90708F043C0C11524E5C9
:1006E000D20708F0A2C0C11582E5D80708F5C115E8
:1006F00091E5D90708F085C0CE0174E096958795FD
:100700007A95E1F783709C2F937021E030E002C06E
:10071000220F331F9A95E2F73C68382BCF70C695AD
:10072000C69580E2C89FE0011124C22BD32B99C04B
:100730009E01237033278C2F86958695C115D3454E
:1007400008F064C0C1E0D0E002C0CC0FDD1F2A95E4
:10075000E2F720E2829FC0011124C82BD92BDC686C
:1007600080C0C11529E5D207A0F4C11588E5D807D6
:1007700008F060C0C11596E5D90708F070C08C2F4D
:100780000E94C9048F71C82FD0E0DC2FCC27D06223
:1007900068C0C1152AE5D20708F451C0CE019056B1
:1007A0008115904208F05BC08D2F8F710E94C904A3
:1007B000DD27D0628F71D82B54C0C55AD0E0CD5BF5
:1007C000DE4FC881D0E0D0644CC0C85AD0E0CC0F16
:1007D000DD1FCB5EDE4F0990D881C02DD46441C0AF
:1007E0000E941503EC013DC0CE019927D3FF03C041
:1007F000EC01D86C36C0EC01D06C33C0DF70D06A2D
:1008000030C0DC2FCC27C16FD06A2BC0C1E0D0E054
:1008100002C0CC0FDD1F2A95E2F720E2829FC001C3
:100820001124C82BD92BDA681CC0DC2FCC27C46F4D
:10083000D06A17C0DC2FCC27C06FD06A12C08C2FB3
:100840008F700E94C90494E0D695C7959A95E1F7F8
:10085000CF70D0E0DC2FCC27D069C82B02C0C0E01D
:10086000D0E0CE01DF91CF9108958238910569F1F2
:10087000B0F48133910509F46DC048F489329105D3
:1008800009F463C08A32910509F469C0089585337B
:10089000910509F455C089339105B9F00895833E57
:1008A000910569F138F4803E9105B1F0823E9105E1
:1008B00009F10895863E9105A9F1873E9105B9F1A8
:1008C000843E910509F064C023C02091510220FDAF
:1008D0004FC021FD4DC008958091510280FD44C05C
:1008E0008091520280FF44C08091510284FD42C039
:1008F00083EE4DC08091510282FF38C0F5CF8091C8
:10090000510282FD33C08091520280FD31C0ECCF94
:100910008091520281FF32C08091510284FD2AC031
:1009200087EE35C08091510283FF26C0F5CF8091BC
:10093000510283FD21C08091520281FD1FC0ECCF86
:100940008091510285FD1CC01DC08091510285FD22
:1009500019C016C08091510286FD16C017C0809143
:10096000510286FD13C010C089E311C082EE0FC092
:1009700080EE0DC080E00BC086EE09C084EE07C09B
:1009800089E205C085E303C08AE201C081E390E00B
:1009900008959091510292FF0DC0282F28712830A0
:1009A00019F4877F846006C0282F2471243011F445
:1009B0008B7F886093FF0DC0282F2871283119F490
:1009C000877E846106C0282F2471243111F48B7E28
:1009D00088612091520220FF0DC0382F38713830C5
:1009E00019F4877F816006C0382F3171313011F4DE
:1009F0008E7F886021FF0DC0282F2871283119F4BF
:100A0000877E816106C0282F2171213111F48E7EED
:100A1000886194FD877E0895E82FF0E0E95BFD4F43
:100A200080810895089580EA8A95F1F708950895E0
:100A30000C9417050C9418050C9417050C941C05C0
:100A4000CF93DF93ACE4B1E041E551E061E070E0C9
:100A50008D91E82FE295EF70F0E021A18F70EB010E
:100A600002C0CC0FDD1F8A95E2F7CE019C2F909536
:100A7000922391A392A1892B82A34A175B0741F786
:100A8000A6E4B1E04CE451E061E070E08D91E82F24
:100A9000E295EF70F0E021A18F70EB0102C0CC0F66
:100AA000DD1F8A95E2F7CE019C2F9095922391A3AA
:100AB00092A1892B82A34A175B0741F7E2E4F2E097
:100AC000A7E4B2E087E492E011921D928E179F078F
:100AD000D9F785E00E94F605DF91CF910C948F0243
:100AE0006F927F928F929F92AF92BF92CF92DF923E
:100AF000EF92FF920F931F93CF93DF938CE4882E96
:100B000081E0982E02E412E097E4A92E92E0B92E3B
:100B1000712CCC24C394D12CF40181914F01C82FA6
:100B2000C295CF70D0E099A18F70760101C0EE0C14
:100B30008A95EAF7892F8E2989A38AA16E2C609461
:100B400086218AA30E941305E6E4F1E040E050E02C
:100B500020E03191A32FA295AF70B0E090968C91D8
:100B600090E03F7002C0959587953A95E2F780FD39
:100B700007C08C2D042E01C0880F0A94EAF701C02B
:100B800080E0282B4F5F5F4F4630510511F789A158
:100B9000682269A28AA1E82AEAA2F80180812817BE
:100BA00019F0208381E001C080E0782A0F5F1F4F99
:100BB000A016B10609F0B0CF272D45E067E472E03A
:100BC00082E492E00E94F7050E949902872DDF914E
:100BD000CF911F910F91FF90EF90DF90CF90BF903A
:100BE000AF909F908F907F906F9008950895FF929F
:100BF0000F931F93CF93DF938C01F62ED72FC42F23
:100C0000222349F081E0809384010E945017909341
:100C1000830180938201809184018823C1F08091B7
:100C20008201909183010E945C17069780F0EF2D5E
:100C3000FD2FD8014C2F50E0CD01801B910B841764
:100C400095071CF48D918193F7CF10928401DF9169
:100C5000CF911F910F91FF9008950E944A15811125
:100C600002C00E94FD150E94851580934C02282F1A
:100C700026952695269530E02430310524F087709E
:100C8000886180934C0280914C0280FF04C086955D
:100C90008695869501C080E00C943C0720914C021B
:100CA000822F869586958695482F50E043305105D2
:100CB00054F48F5F982F990F990F990F822F877097
:100CC000892B80934C0280914C02816080934C026E
:100CD0000E94891580914C028695869586950C9484
:100CE0003C0780914C02982F969596959695A1F089
:100CF000915E990F990F990F8770892B80934C0201
:100D0000887F91E009F490E080914C0290FB80F99B
:100D100080934C020E94891580914C02869586959D
:100D200086950C943C0780914C0280FD13C0816035
:100D300080934C02813019F489E080934C028091B9
:100D40004C020E94891580914C0286958695869565
:100D50000C943C07089580914C0280FF08C08E7F60
:100D600080934C020E94891580E00C943C07089502
:100D700080914C0280FD0C94AB060C9493069091EC
:100D80004C02892F8695869586958F5F8F71977017
:100D9000843038F4880F880F880F892B80934C0299
:100DA00002C090934C0280914C02887F91E009F43C
:100DB00090E080914C0290FB80F980934C020E945D
:100DC000891580914C028695869586950C943C07F2
:100DD000843008F083E090914C029770282F220F06
:100DE000220F220F922B90934C02987F21E009F45E
:100DF00020E090914C0220FB90F990934C020C94CF
:100E00003C070E94E80680914C020C9489159C01D5
:100E1000FB018281882349F12D3BFCE53F07C9F0A6
:100E200040F42B3BECE53E0769F02C3B3C4561F080
:100E300008952F3B9CE5390791F070F0203C3C452C
:100E400089F0089583E001C080E00E94010780E0FE
:100E500008950E947106FBCF0E944E06F8CF0E94B3
:100E6000B806F5CF0E94BF06F2CF81E00895259A1B
:100E70002D9808952D980895CF92DF92EF92FF92CA
:100E8000CF93C82F843050F4811109C08091800025
:100E90008F77809380000E943A0706C0C3E080915C
:100EA00080008068809380002C2F30E0AFEFBFEF90
:100EB0000E94222323E030E040E050E00E94FA222A
:100EC000C9012C3764E1360728F469E070E00E941C
:100ED000D22229C0DA01C9018A50974DAF4FBF4FC6
:100EE0006627782F892F9A2F25EF38E241E050E0CE
:100EF0000E94FA2269017A01CA01B9010E94C22244
:100F00009B01AC01C701B6010E94C222BB27A92FD9
:100F1000982F872F009721E0A207B10511F0BC019F
:100F200002C06FEF7FEF7093890060938800CF91CC
:100F3000FF90EF90DF90CF90089508950E943707BB
:100F400082E88093800089E1809381008FEF9FEF9A
:100F500090938700809386000C942D060F931F9327
:100F6000CF93DF93C62FD42F122FFC0182818823C9
:100F7000C9F0609387010E94501790938601809377
:100F8000850180E28C0F883008F057C0C77081E07F
:100F900001C0880FCA95EAF7DF91CF911F910F9199
:100FA0000C943B0C80918701681330C080918501BF
:100FB000909186010E945C17883C910538F500E20B
:100FC0000D0FCD17B9F080E28C0F883040F4C77058
:100FD00081E001C0880FCA95EAF70E94420C0830F0
:100FE00028F581E09D2F977001C0880F9A95EAF748
:100FF0000E943B0C812F0E94280C0830F0F4D7701F
:1010000081E001C0880FDA95EAF70AC080E28C0F10
:10101000883098F4C77081E001C0880FCA95EAF75C
:10102000DF91CF911F910F910C94420C812FDF9192
:10103000CF911F910F910C94280CDF91CF911F91AC
:101040000F9108959C01CB01233F4CE53407F9F043
:1010500078F4283DFCE53F07B9F0293D4CE534071D
:1010600011F1273D3C4531F526E241EE61EE1EC00F
:10107000253FFCE53F0799F070F0263F3C45D1F451
:1010800027E245EE66EE12C027E245EE0EC026E2EC
:1010900041EE60EE0BC027E245EE64EE07C026E2AB
:1010A00041EE62EE03C028E241E065EE0E94AE0729
:1010B00080E00895FC018281882319F01092870155
:1010C000089581E00895CF93DF93EC01FB018281C5
:1010D000882309F41FC1C230FCE5DF0708F41BC1F7
:1010E000C6319CE5D90738F09E012A5F3C4529307E
:1010F000310508F010C10E94671590935202809349
:101100005102C031ECE5DE0709F4C3C008F041C06C
:10111000C8308CE5D80709F49AC0F0F4C430ECE587
:10112000DE0709F487C068F4C2308CE5D80709F4FB
:1011300077C0C330DC4509F0E3C080915102826082
:1011400076C0C630ECE5DE0709F46EC008F07BC05F
:101150008091510288606BC0CC308CE5D80709F4CF
:1011600085C068F4CA30ECE5DE0709F474C008F005
:1011700079C00E94CB0E80915102806858C0CE3059
:101180008CE5D80709F476C008F07FC08091510241
:101190008BC0CB3FECE5DE0709F44FC018F5C33137
:1011A0008CE5D80709F47DC078F4C131ECE5DE07A1
:1011B00009F473C0C231DC4509F0A2C00E94CB0E15
:1011C000809151028F7733C0C5318CE5D80709F47F
:1011D00072C008F486C0CA3FDC4509F091C0809116
:1011E00052023EC0CF3FFCE5DF0709F45FC058F470
:1011F000CD3F9CE5D90709F444C008F43FC0809175
:10120000520282602DC0C130FDE5DF0709F475C0D0
:1012100008F45DC0C230DD4509F072C080E06EC0E8
:1012200080915102816003C080915102806180935E
:10123000510266C08091510211C0809152028260B9
:10124000809352025DC0809151028062F0CF809104
:1012500051028064ECCF8091510288608460E7CFB6
:101260008160EECF809151028E7FE1CF809151025B
:101270008D7FDDCF80915102877FD9CF809152023F
:1012800018C0809152028D7FDBCF809151028F7EFA
:10129000CECF809151028F7DCACF809151028F7B3A
:1012A000C6CF80915102877F8B7FC1CF8091520240
:1012B0008D7F8E7FC5CF8091510282FB222720F93E
:1012C00091E0922790FB82F990FB83F9B0CF809157
:1012D0005202982F909591708E7F892B90FB81F907
:1012E000AFCF0E94CB0E8091510287FB222720F9BD
:1012F00091E0922790FB87F99ACF81E00E94FF1539
:1013000080915102909152020E9478150E94CB0E5A
:1013100080E001C081E0DF91CF910895CF93DF930A
:1013200086319C4541F5EB010E949914982F8A81E2
:101330002091000130910101882379F09A7A81E0AF
:1013400009F480E080938801911102C069E201C034
:1013500065E3C9010E949A160AC080918801811133
:1013600002C069E201C065E3C9010E94A5160E949E
:10137000E71480E001C081E0DF91CF910895909360
:101380008E0180938D010895E0918D01F0918E0181
:10139000309721F00190F081E02D099480E00895CC
:1013A000E0918D01F0918E01309799F02091140118
:1013B000222359F02091510227FF07C0DC012C9114
:1013C00011962C93119725E02C930280F381E02D48
:1013D00009940895E0918D01F0918E01309739F0D4
:1013E00022E0DC012C930480F581E02D099408951E
:1013F00020918B0130918C012817390771F090935F
:101400008C0180938B01E0918D01F0918E013097DA
:1014100021F00680F781E02D09940895209189013B
:1014200030918A012817390771F090938A018093CF
:101430008901E0918D01F0918E01309721F00084B7
:10144000F185E02D0994089585B7806885BF85B73B
:10145000806885BF089508950C942B0A0C942C0A7B
:101460000C942B0A0C942B0A0E94240A0E94300A26
:101470000C942E0A81E008950C943A0A0E944717B2
:101480000E9420050E94E6170E942D060C94320A45
:10149000AF92BF92CF92DF92EF92FF920F931F9382
:1014A000CF93DF93CDB7DEB72A970FB6F894DEBFA0
:1014B0000FBECDBF0E9470050E943C0A811111C071
:1014C0008FEF89838A831B820E9450178160782F57
:1014D0009D838C8349815A816B818D810E94E20AB0
:1014E00040C080E9A82E81E0B82E00E010E0C02EB8
:1014F000802F0E940C05E82EF501D1905F01D826BF
:1015000031F40F5F1F4F0530110589F7D9CF809156
:101510000F0281FD0E94120580E0FF24F3949D2DAF
:101520009F21D1F08E83CF82EF2081E009F480E00B
:1015300088870E9450178160782F9A8789874E810B
:101540005F8168858A850E94E20AF801E057FE4FB4
:101550008081F826F08205C08F5FFF0C8630F9F697
:10156000D0CF0E949D070E949A1A0E94C4099091B0
:101570008F018917B1F00E94C40980938F012A96C8
:101580000FB6F894DEBF0FBECDBFDF91CF911F9194
:101590000F91FF90EF90DF90CF90BF90AF900C94A1
:1015A000A2022A960FB6F894DEBF0FBECDBFDF9120
:1015B000CF911F910F91FF90EF90DF90CF90BF9050
:1015C000AF900895CF93DF93CDB7DEB72B970FB6CB
:1015D000F894DEBF0FBECDBF4F83588769877A87E7
:1015E0008B87DE01119686E0FD0111928A95E9F75D
:1015F00085E0FE01379601900D928A95E1F74981C9
:101600005A816B817C818D819E810E9484112B96F1
:101610000FB6F894DEBF0FBECDBFDF91CF91089516
:10162000FC01808191810E945A140895CF938823F0
:1016300009F4A4C0C82F8238C1F40E94C40981FDF6
:101640009DC069E380910001909101010E949A166A
:101650000E94E7142FEF81EE94E0215080409040EB
:10166000E1F700C0000069E319C0833801F50E946A
:10167000C40980FD83C063E5809100019091010160
:101680000E949A160E94E7142FEF81EE94E02150F9
:1016900080409040E1F700C0000063E580910001C8
:1016A000909101010E94A516CF910C94E714843803
:1016B000C1F40E94C40982FD61C067E48091000109
:1016C000909101010E949A160E94E7142FEF81EE7B
:1016D00094E0215080409040E1F700C0000067E4B2
:1016E000DDCF8CEF8C0F813AD0F46C2F809100010C
:1016F000909101010E941A16882349F06C2F809165
:101700000001909101010E94A5160E94E7146C2F20
:1017100080910001909101010E949A16C5CF80E24C
:101720008C0F883048F4C77081E001C0880FCA95DB
:10173000EAF70E949C14B8CFEBE5EC0FE33040F4DD
:10174000F0E0E158FE4F808190E0CF910C94F809D1
:10175000E8E5EC0FE73150F4F0E0EE0FFF1FEF5A31
:10176000FE4F80819181CF910C940E0AC03F30F0E2
:101770008C2F0E94A219CF910C948F1ACF910895AB
:10178000882309F464C0823879F40E94C40981FF77
:101790005EC069E380910001909101010E949A1658
:1017A0000E94E71469E310C08338B1F40E94C409B1
:1017B00080FF4DC063E580910001909101010E947E
:1017C0009A160E94E71463E580910001909101014F
:1017D0000E94A5160C94E714843879F40E94C40979
:1017E00082FF35C067E480910001909101010E9461
:1017F0009A160E94E71467E4E7CF9CEF980F913A9E
:1018000010F4682FE1CF90E2980F983050F4877071
:1018100091E001C0990F8A95EAF7892F0E94A214DE
:10182000D9CF9BE5980F933020F480E090E00C94A2
:10183000F80998E5980F973120F480E090E00C9437
:101840000E0A803F20F00E940A1A0C948F1A089505
:10185000CF93C82F0E94160BC93349F42FEF87EEA0
:1018600093E0215080409040E1F700C000008C2FB1
:10187000CF910C94C00B882321F00E949C140C94EF
:10188000E7140895882321F00E94A2140C94E71411
:101890000895CF92DF92EF92FF920F931F93CF9311
:1018A000DF937C01062FC72FFC01158112951F7055
:1018B000D281D1110E94B9140E949214882399F008
:1018C000DD2389F08C2F807F803421F080E2800F2F
:1018D000883048F082E00E9431150E94921491E015
:1018E000D82ED92601C0D12CCC2EC2948FE0C8228C
:1018F0008C2D90E0FC01EA5AFF4F0C941C238C2F96
:10190000807FCF70882311F0C295C07FDD2399F0CE
:10191000CC2309F48DC180E2800F883010F00111D2
:1019200004C08C2F0E949C1403C08C2F0E94AC1406
:101930000E94E7147DC1802F0E94C00BCC2309F4C4
:101940009CC180E2800F883010F0011104C08C2F00
:101950000E94A21403C08C2F0E94B2140E94E714AC
:101960008CC18C2F807FCF70803211F0C295C07FE8
:10197000002319F00130C9F022C0DD2371F01123DA
:1019800041F0113031F40E94CC148C2B0E94D414FD
:1019900074C10E94CC148C2B1DC0112319F011307E
:1019A00009F46BC10E94DD1425C0DD2321F016303F
:1019B00008F063C10EC0153008F05FC11BC0DD2305
:1019C00061F0112331F0F701858180FF31C18F7003
:1019D00085838C2F0E943B0C50C1112359F0093391
:1019E00009F037C1FFEF27EE83E0F150204080403F
:1019F000E1F72DC18C2F0E94420C3FC18C2F8695A0
:101A00008695837019F0813061F037C1DD2321F0B4
:101A1000802F9C2F937002C080E090E00E94F80914
:101A200034C1DD2321F0802F9C2F937002C080E011
:101A300090E00E940E0A29C1802FDD2319F00E9438
:101A4000A21902C00E940A1A0E948F1A1EC18C2F6E
:101A5000837009F045C0D11114C1402F42954695BD
:101A60004770440F440F602F6F70862F90E0A0E006
:101A7000B0E0042E04C0880F991FAA1FBB1F0A9450
:101A8000D2F704FF10C00FE010E020E030E004C007
:101A9000000F111F221F331F4A95D2F70095109592
:101AA0002095309503C000E010E09801C695C695DA
:101AB000C370BC01CD01602B712B822B932BC230E4
:101AC00049F058F4C13019F00E94D512DAC00E94D2
:101AD000C312D7C00E94E712D4C00E94C112D1C065
:101AE000DD2319F08C2F817001C08695882309F4BD
:101AF000C8C0402F429546954770440F440F602F51
:101B00006F70862F90E0A0E0B0E0042E04C0880F34
:101B1000991FAA1FBB1F0A94D2F704FF10C00FE041
:101B200010E020E030E004C0000F111F221F331F1F
:101B30004A95D2F7009510952095309503C000E0A6
:101B400010E09801C695C695C370BC01CD01602B0D
:101B5000712B822B932BC23049F058F4C13019F00D
:101B60000E949A138EC00E9488138BC00E94AC13EF
:101B700088C00E94FB1285C0CF70DD2339F08C2F06
:101B80000E942113802F0E943B0C7BC0802F0E945B
:101B9000420C8C2F0E94421374C0023F01F128F4C2
:101BA000003F41F0013FA1F03FC0033FF9F0043F87
:101BB00039F13AC0DD2341F0153008F05EC08C2FBA
:101BC0008F710E94671359C0163008F056C0F7CFC6
:101BD000DD2339F08C2F8F710E9421134EC0DD233D
:101BE000C9F38C2F8F710E94421347C0DD2329F067
:101BF0008C2F8F710E940C1340C00E9407133DC0B0
:101C0000DD2349F0CF718C2F0E94211363E08C2FCC
:101C10000E941C1532C081E00E943115123068F11B
:101C200082E00E94311529C0DD2331F0112391F2A9
:101C3000802F0E94160B21C0112399F2093349F419
:101C40009FEFE7EEF3E09150E040F040E1F700C095
:101C50000000802F0E94C00B10C04C2F4F70602FCF
:101C6000C7010E94FE020E9432120FC04C2F4F701B
:101C7000602FC7010E94010308C088EF8C0D8430DB
:101C800020F40E94C4090E94A202DD20C9F00E9433
:101C90008E1480FD15C0F70112820E9488140E94E4
:101CA0002113C7010E94810E0E948814DF91CF91F9
:101CB0001F910F91FF90EF90DF90CF900C94421303
:101CC000DF91CF911F910F91FF90EF90DF90CF9018
:101CD00008950F931F93CF93DF93EC01688179816F
:101CE0008A810E9465148C010E94BE130E94AF126B
:101CF000B801CE010E94490CDF91CF911F910F9145
:101D00000895CF93DF93EC01988189812B813C81E9
:101D1000232B31F08F3F31F481E09F3F19F403C052
:101D200081E001C080E080FD19C0CE010E94BB02AD
:101D300081110CC00E949214882381F08A8188232B
:101D400069F082E0DF91CF910C943115CE010E94B1
:101D5000690ECE01DF91CF910C948402DF91CF9177
:101D600008950E94B9140E94C9140E94E7140E94A9
:101D7000B91B0E948F1A80E090E00E94F80980E071
:101D800090E00C940E0A80910001909101010E9454
:101D9000B0160C94B10E0E94A9140C94C30EE92F36
:101DA000E295EF704E2F50E0FA013297EE30F105D8
:101DB000B0F4EA59FF4F0C941C23803F91F018F4C3
:101DC000883E68F40EC0843F51F40BC0883E48F052
:101DD000813F29F406C093FB882780F9089580E0AD
:101DE000089581E008950E945A140E94CF0E08952C
:101DF000CF93DF9300D000D01F92CDB7DEB70F9006
:101E00000F900F900F900F90DF91CF910895CF9387
:101E1000DF9300D000D000D0CDB7DEB726960FB646
:101E2000F894DEBF0FBECDBFDF91CF9108951F9311
:101E3000CF93DF93C091960116E080919701C81768
:101E400099F0D0E01C9FF0011D9FF00D1124E85681
:101E5000FE4F4081518162817381848195810E940E
:101E6000070F2196C770E9CFDF91CF911F91089599
:101E70004091C8015091C9016091CA017091CB0194
:101E80008091CC019091CD010C94070F0F931F937B
:101E9000CF93DF938091CD0182958F7009F05DC063
:101EA0008091CA01882309F458C08091960110914D
:101EB00097016091C8017091C901C091CB01D09187
:101EC000CC0191E06F3F09F090E0292F06E08117E7
:101ED00009F443C0209721F07F3F21F030E003C098
:101EE00031E001C0322F90E030FD34C0089FF00196
:101EF000099FF00D1124DF01A856BE4F11963C91A9
:101F00001197371327C03C91361324C012963C9189
:101F1000129731111FC013964D915C9114974C1B71
:101F20005D0B483C5105B0F48091CD018F7080610C
:101F30008093CD01E356FE4F80818F708061808356
:101F400088EC91E00E94810EDF91CF911F910F915B
:101F50000C94170F01968770BACFDF91CF911F9124
:101F60000F9108959F92AF92BF92CF92DF92EF921E
:101F7000FF920F931F93CF93DF93CDB7DEB7619797
:101F80000FB6F894DEBF0FBECDBF8C0185E0F8011F
:101F9000DE011D9601900D928A95E1F7F8014081CE
:101FA0005181E2809091C8016091C9012091CB01DB
:101FB0003091CC012115310531F06F3F31F481E0D2
:101FC0009F3F19F403C081E001C080E0F82FF17059
:101FD0009F2E80FD46C1F801A380B48088ECC82EF6
:101FE00081E0D82EF090CA01F501E21BF30BFF202F
:101FF00009F4DFC08091CD01E83CF10508F09BC0F9
:10200000282F207F09F052C0561313C0491311C066
:10201000FE2CE1100EC08F7080618093CD010E9474
:10202000380FC6010E94810E8091CD01F801858391
:1020300058C1AB2831F05F3F31F481E04F3F19F4D4
:1020400003C081E001C080E080FD03C081E08E25F7
:1020500002C080E090E0F82FF170FF2E80FF1CC0DE
:10206000809196012091970136E0821709F417C1FB
:1020700090E0389FF001399FF00D1124E856FE4F93
:102080006181561306C06081461303C06281E61267
:1020900003C001968770E9CFFE2CEE2009F421C120
:1020A0008091CD0181608093CD015AC0561306C046
:1020B000491304C0E11002C0F8019FC04D875E873C
:1020C0008D859E850E94F30E882379F1EE2069F1BB
:1020D0002091CD01822F82958F7090E0029774F04D
:1020E0008091C8019091C90198878F831986BB861A
:1020F000AA862C87CE0107960E94810E86E0F80101
:10210000A8ECB1E001900D928A95E1F70E94460F8C
:102110000E94380F0DC0561729F14D875E878D85B7
:102120009E850E94F30E81112CC0C8010E94810E71
:10213000FF24F394D6C0282F207F69F77A2DB98A1F
:10214000A88A6E2D89890E94F80E88EC91E00E9481
:10215000810E86E0F60111928A95E9F70E94380F08
:10216000F12CBFC04913D9CFE110D7CFF801858337
:10217000C8010E94810E86E0F60111928A95E9F766
:10218000B0C0EE2091F22091CD01822F82958F7008
:1021900090E002970CF4B2CF8091C8019091C901F0
:1021A0009A8389831B82BD82AC822E83CE010196E5
:1021B000A3CFE83CF10508F047C0FE2CEE2009F45F
:1021C000B4CF561330C049132EC02091CD0120FD4D
:1021D00021C0822F82958F70482F50E04115510504
:1021E000C9F0F80125834F30510541F08F5F982FDA
:1021F0009295907F822F8F70892B8583C8010E94D2
:10220000810E86E0F801A8ECB1E001900D928A956C
:10221000E1F742C086E0F801A8ECB1E001900D9230
:102220008A95E1F75EC04D875E878D859E850E9409
:10223000F30E811163CF8091CD0181608093CD0138
:10224000C8010E94810E4DC07A2DB98AA88A6E2DD0
:1022500089890E94F80E86E0F60111928A95E9F7C5
:102260001BC0EE2009F461CF4D875E878D859E856A
:102270000E94F30EF82E882309F457CF86E0F80168
:10228000A8ECB1E001900D928A95E1F788EC91E01D
:102290000E94100B0E94460F0E94380F22C04D87EB
:1022A0005E878D859E850E945A14292F22952F7056
:1022B000223028F49F7039F0811105C00BC0243002
:1022C00028F49F7049F4805E883020F0C8010E9495
:1022D000810E9F2CF92C05C0F8019581907F99F70C
:1022E000F9CF8F2D61960FB6F894DEBF0FBECDBF2C
:1022F000DF91CF911F910F91FF90EF90DF90CF90E2
:10230000BF90AF909F9008951F93CF93DF93CDB769
:10231000DEB72C970FB6F894DEBF0FBECDBF4F834C
:10232000588769877A878B879C87CE0107960E949A
:10233000B20F8823D1F09F8188852A853B85232B86
:1023400031F08F3F31F481E09F3F19F403C081E009
:1023500001C080E080FD47C04F81588569857A853E
:102360008B859C850E94070F3EC086E0FE01379654
:10237000DE01119601900D928A95E1F7FF81E885C3
:102380006A857B856115710531F0EF3F31F481E09D
:10239000FF3F19F403C081E001C080E080FD23C04D
:1023A0002091970130E0C9010196877099274091EB
:1023B000960150E084179507F1F1F983EA837D8354
:1023C0006C8396E0929FD001939FB00D1124A85684
:1023D000BE4FFE01319601900D929A95E1F78093E0
:1023E00097010E94170F16E0809196019091970136
:1023F000891771F1189FC001112488569E4F0E94C1
:10240000B20F882329F1E09196011E9FF00111245B
:10241000E856FE4F408151816281738184819581AC
:102420000E94070F8091960190E00196877099278E
:1024300080939601D9CF0E94CB0E109297011092F3
:102440009601E8ECF1E086E0DF011D928A95E9F75C
:102450002C960FB6F894DEBF0FBECDBFDF91CF91A3
:102460001F910895EF92FF920F931F93CF93DF93E5
:102470008C01892B09F46CC0F12CEE24E394E80163
:102480002196F8018491843740F4843008F051C0DB
:10249000813081F0823019F15BC0853709F444C086
:1024A000A8F19CE7980F903708F052C08F770E94F0
:1024B000C00B41C00E5F1F4FFE01849190E2980F48
:1024C000983050F48770FE2D01C0FF0F8A95EAF70F
:1024D0008F2F0E94BC1414C00E94160B2DC00E5FDB
:1024E0001F4FFE01849190E2980F983060F487703E
:1024F000FE2D01C0FF0F8A95EAF78F2F0E94C214AC
:102500000E94E71419C00E94C00B16C00E5F1F4F37
:10251000FE01C491CC2381F08FE99FE00197F1F790
:1025200000C00000C150F6CF0E5F1F4FFE01F490B7
:1025300003C00E94160B8E018F2D882309F49FCFB4
:10254000EFE9FFE03197F1F700C000008150F5CFCF
:10255000DF91CF911F910F91FF90EF900895089513
:1025600008950C94B0120C94B1120E94B3126093AF
:10257000E6017093E7018093E8019093E9010C94E0
:10258000B10E0C94B5120F931F930091E6011091B8
:10259000E7012091E8013091E901602B712B822B3A
:1025A000932B1F910F910C94B5120F931F930091D1
:1025B000E6011091E7012091E8013091E9016023E3
:1025C0007123822393231F910F910C94B5120F93C3
:1025D0001F930091E6011091E7012091E8013091ED
:1025E000E90160277127822793271F910F910C948F
:1025F000B5120C94B0120E94F9126093E20170932C
:10260000E3018093E4019093E5010C94B10E60E046
:1026100070E0CB010C94FB120F931F9341E050E04C
:1026200060E070E08A019B0104C0000F111F221FAF
:10263000331F8A95D2F7C901B8011F910F910C94ED
:10264000FB120F931F9341E050E060E070E004C084
:10265000440F551F661F771F8A95D2F78091E201BC
:102660009091E301A091E401B091E5018A019B0101
:10267000082B192B2A2B3B2BC901B8011F910F9155
:102680000C94FB120F931F9341E050E060E070E068
:1026900004C0440F551F661F771F8A95D2F74095D7
:1026A0005095609570958091E2019091E301A09121
:1026B000E401B091E5018A019B01082319232A2333
:1026C0003B23C901B8011F910F910C94FB120F938A
:1026D0001F9341E050E060E070E004C0440F551FDC
:1026E000661F771F8A95D2F78091E2019091E301EE
:1026F000A091E401B091E5018A019B010827192707
:102700002A273B27C901B8011F910F910C94FB1296
:102710000F931F930091E2011091E3012091E401D6
:102720003091E501602B712B822B932B1F910F9120
:102730000C94FB120F931F930091E2011091E3019F
:102740002091E4013091E5016023712382239323DA
:102750001F910F910C94FB120F931F930091E201B4
:102760001091E3012091E4013091E5016027712788
:10277000822793271F910F910C94FB120895292F04
:10278000220F920F990F890FE82FE695E695E695AF
:10279000877051E001C0550F8A95EAF785E0E89F00
:1027A000F0011124E253FE4F20E030E070E0408160
:1027B000CB01022E02C0969587950A94E2F78170AC
:1027C000819584278523842781932F5F3F4F253070
:1027D000310569F70895292F220F920F990F890F5C
:1027E000682F669566956695982F977085E0689F27
:1027F000B001112440E050E080E0FB01E40FF51F40
:10280000E253FE4F208130E0092E02C03695279515
:102810000A94E2F721703327042E01C0220F0A9494
:10282000EAF7822B4F5F5F4F4530510531F708952E
:10283000BF92CF92DF92EF92FF920F931F93CF93AD
:10284000DF938C01C090E201D090E301E090E401BD
:10285000F090E5018091E6019091E701A091E801F7
:10286000B091E901C82AD92AEA2AFB2ACFE1D0E0AF
:10287000D701C6010C2E04C0B695A79597958795EC
:102880000A94D2F780FD04C0219790F7B12C07C0BD
:10289000BC2EB8018C2F0E941D030197A9F38B2D2C
:1028A000DF91CF911F910F91FF90EF90DF90CF902C
:1028B000BF900895CF93DF93EC010E941814BE01DE
:1028C0000E941D03DF91CF9108951F93CF93DF9353
:1028D000EB0190919501992321F0CB010E945A14AC
:1028E00013C0882349F0CB010E941814182F682FB9
:1028F000CE010E94BF1304C0CB010E94EB13182F1E
:10290000BE01812F0E941D03DF91CF911F91089579
:102910008091EA0185958595859508958091EA01D4
:10292000877008959091EA01977081E009F480E042
:10293000089580910E02089590910E02892B809344
:102940000E020895809590910E02892380930E02C5
:10295000089510920E02089590910D02892B809394
:102960000D020895809590910D02892380930D02A8
:10297000089510920D02089590910C02892B809376
:102980000C020895809590910C02892380930C028B
:10299000089510920C0208958091EB010895089516
:1029A0000C94CF140C94D0149091EB01981721F053
:1029B0008093EB010C94D21408958091EB0188234D
:1029C00029F01092EB0180E00C94D2140895E0916C
:1029D0000001F091010180910E028083E0910001DD
:1029E000F0910101908180910D02892B8083E0910B
:1029F0000001F0910101908180910C02892B80836C
:102A00008091EB01882381F0E0910001F0910101B8
:102A10009081892B808380910001909101010E9417
:102A2000041681110E94DD14809100019091010132
:102A30000C94D0090C94CF1498E0899F9001112434
:102A4000262B2093EA010E9421138091EA018595AB
:102A5000859585950C941A151092EA0180E00C94E6
:102A60001A152091EA01809582238093EA01982F1C
:102A7000977079F430E0482F082E000C550B24177E
:102A8000350739F08595859585950E9442130C94FC
:102A90002C15089580E090E00E94442321E08C3EB4
:102AA0009E4F09F020E0822F089582E090E00C9480
:102AB0003C23682F82E090E00C944A2383E090E06E
:102AC0000C943C23682F83E090E00C944A23CF932E
:102AD00084E090E00E943C23C82F81E290E00E94B5
:102AE0003C232C2F30E0A901582BCA01CF91089527
:102AF000CF93C92F682F84E090E00E944A236C2F67
:102B000081E290E0CF910C944A2386E090E00C940F
:102B10003C23682F86E090E00C944A23AB01BC0173
:102B20008FE090E00C945C23AB01BC0183E190E06A
:102B30000C945C2360E070E0CB010C94941560E091
:102B400070E0CB010E948E150C949A156CEE7EEF0E
:102B500080E090E00E94682360E082E090E00E94C4
:102B60004A2360E083E090E00E944A231092E6014D
:102B70001092E7011092E8011092E90160E084E010
:102B800090E00E944A2360E081E290E00E944A23A4
:102B900060E085E090E00E944A2360E086E090E0FB
:102BA0000E944A236FEF87E090E00E944A2340E0B2
:102BB00050E0BA0188E090E00E945C2360E08DE084
:102BC00090E00E944A2340E050E0BA0188E190E0A2
:102BD0000E945C2360E087E190E00E944A2340E08D
:102BE00050E0BA018CE190E00E945C2360E080E25A
:102BF00090E00E944A230C949F150C94A615682F10
:102C00008EE090E00C944A23FC01329680911401EE
:102C1000882331F08091510287FF02C09EE101C0FC
:102C200096E080E0915028F021912223D9F38F5F24
:102C3000F9CF0895662351F1209114012223E9F080
:102C40002091510227FF19C0462F4695469546957B
:102C50004E31E0F4677021E030E002C0220F331FF4
:102C60006A95E2F7FC01E40FF11D828190E02823D0
:102C7000392381E0232B69F409C0FC0132960896C0
:102C80002191621729F0E817F907D1F780E008953C
:102C900081E008959C01FC0132969FEF80E0419114
:102CA000461789F09F3F19F4411101C0982F8F5F9B
:102CB0008630A9F79F3F39F0F901E90FF11D97FD23
:102CC000FA956283089508959C012A5F3F4FFC01A5
:102CD0004281461301C01282019682179307B9F709
:102CE0000895262F2695269526952E3168F4FC0109
:102CF000E20FF11D677021E030E001C0220F6A95FC
:102D0000EAF78281282B22830895262F269526957F
:102D100026952E3170F4FC01E20FF11D677021E061
:102D200030E001C0220F6A95EAF7209582812823BE
:102D30002283089520911401222329F02091510229
:102D400027FD0C9471160C944A162091140122232D
:102D500029F02091510227FD0C9485160C946416DD
:102D600020911401FC013296222331F0809151020E
:102D700087FF02C08EE101C086E0DF011D928A95C7
:102D8000E9F7089508950C94C2160C94C216CF93D7
:102D90000E94C5160E9470050E94C316C0E08C2FC9
:102DA0000E940C05811104C0CF5FC530C1F701C07E
:102DB00081E0CF9108950C94C2160C94DB160E940A
:102DC000DD1680915702843061F11092100220E4E8
:102DD00088E190E00FB6F894A895809360000FBE4C
:102DE0002093600080E00E943C0780E00E94A202E5
:102DF0000E94DD1683B7817F846083BF83B78160C3
:102E000083BF7894889583B78E7F83BF0FB6F8947D
:102E1000A8958091600088618093600010926000A6
:102E20000FBE08950C94C2160E94CB0E0E942D0670
:102E30000E94C4090E94A2020C9412171F920F92C2
:102E40000FB60F9211248F939F93AF93BF938091EE
:102E50001002811113C080914D0290914E02A091F9
:102E60004F02B09150024196A11DB11D80934D02B9
:102E700090934E02A0934F02B0935002BF91AF9136
:102E80009F918F910F900FBE0F901F90189582E029
:102E900084BD93E095BD9AEF97BD80936E00089531
:102EA0002FB7F89480914D0290914E02A0914F025D
:102EB000B09150022FBF08959C014FB7F8948091B4
:102EC0004D0290914E02A0914F02B09150024FBF1F
:102ED000821B930B089578941F920F920FB60F9256
:102EE00011248F939F93AF93BF9380914D02909144
:102EF0004E02A0914F02B09150020196A11DB11D4A
:102F000080934D0290934E02A0934F02B0935002D3
:102F1000BF91AF919F918F910F900FBE0F901F9017
:102F2000189587E797E790930108809300089AE047
:102F300088E10FB6F894A895809360000FBE909337
:102F40006000FFCFCF92DF92EF92FF920F931F931B
:102F5000CF93C0E0E82EF12C8C2F0E940C0500E0EE
:102F600010E0C82ED12CC601002E02C09595879581
:102F70000A94E2F780FD06C00F5F1F4F063011056F
:102F800091F70AC0602F7C2F80E00E940203E816B0
:102F9000F90691F781E004C0CF5FC530E9F680E023
:102FA000CF911F910F91FF90EF90DF90CF900895F8
:102FB000CF93C82F8CE20E94A217882321F08C2F78
:102FC000CF910C94A21780E0CF910895CF930E94E7
:102FD0004A15811102C00E94FD15C5E6C15049F095
:102FE0000E9470058FE39CE90197F1F700C0000093
:102FF000F5CF89E20E94D817811120C18AE20E9490
:10300000D81781110E94FD1585E00E94D817811103
:103010000E9491170E94551580930F0287E00E942D
:10302000D8178823A9F18BE10E94D817882351F083
:1030300080910F0281FB222720F991E0922790FBDB
:1030400081F90EC08EE00E94D817882361F080912C
:103050000F0282FB222720F991E0922790FB82F950
:1030600080930F0215C080E10E94D81790910F0243
:10307000882341F093FB222720F981E0822780FBFF
:1030800093F904C0892F809580FB90F990930F02EB
:1030900080910F020E9459150E9467159093520269
:1030A0008093510280EE0E94D817882341F08091CE
:1030B0005102982F909590FB80F98093510289E3FB
:1030C0000E94D817882359F08091510281FB222752
:1030D00020F991E0922790FB81F98093510282EED2
:1030E0000E94D817882359F08091510282FB222731
:1030F00020F991E0922790FB82F98093510286EEAD
:103100000E94D817882359F08091510283FB22270F
:1031100020F991E0922790FB83F98093510283EE8E
:103120000E94D817882359F08091510284FB2227EE
:1031300020F991E0922790FB84F98093510285E376
:103140000E94D817882359F08091510285FB2227CD
:1031500020F991E0922790FB85F98093510281E359
:103160000E94D817882359F08091510286FB2227AC
:1031700020F991E0922790FB86F98093510281E13A
:103180000E94D817882359F08091510287FB22278B
:1031900020F991E0922790FB87F98093510280916A
:1031A0005102909152020E94781587E20E94D8172E
:1031B000C82F8EE10E94D8178111C2608FE10E9452
:1031C000D8178111C46080E20E94D8178111C860AD
:1031D00081E20E94D8178111C06182E20E94D81753
:1031E0008111C06283E20E94D8178111C06484E219
:1031F0000E94D817882311F0C06802C0CC2329F0A0
:103200008C2F0E9462156C2F03C00E945E15682FE0
:1032100070E080E090E00E94C1128FE00E94D81719
:10322000882319F081E00E94FF1585E10E94D817DC
:10323000882321F080E0CF910C94FF15CF91089561
:103240008091180280FF0BC06091070185E0689FA4
:10325000B001112475956795759567952BC081FF11
:1032600009C06091070185E0689FB0011124759540
:10327000679520C082FF07C06091070185E0689FC5
:10328000B001112417C0909117029923D1F06091D9
:103290000601961788F72091070185E0289F900185
:1032A0001124929FA001939F500D112470E0CA0138
:1032B0000E94E6226038710540F46115710519F429
:1032C00006C065E070E0862F08958FE7089581E0DD
:1032D00008958091180280FF08C06091030170E09A
:1032E000759567957595679521C081FF06C06091BA
:1032F000030170E07595679519C082FF04C0609165
:10330000030170E010C090911702992399F0609129
:1033100002019617A0F780910301899FC001112433
:1033200070E00E94E6226038710540F46115710575
:1033300019F406C061E070E0862F08958FE70895C4
:1033400081E00895803F21F40E942019819504C0F6
:10335000813F29F40E94201980931C020895823F26
:1033600021F40E942019819504C0833F29F40E9412
:10337000201980931B020895893F19F40E9469194E
:1033800005C08A3F31F40E946919819580931D021E
:1033900008958B3F21F40E946919819504C08C3FE8
:1033A00029F40E94691980931E020895843F21F434
:1033B00080911A02816017C0853F21F480911A0222
:1033C000826011C0863F21F480911A0284600BC094
:1033D000873F21F480911A02886005C0883F31F44C
:1033E00080911A02806180931A0208958D3F21F422
:1033F0008091180281600BC08E3F21F480911802E9
:10340000826005C08F3F29F4809118028460809308
:1034100018020895803F39F480911C0287FF6CC028
:1034200010921C0269C0813F29F480911C02181679
:10343000BCF362C090911B02823F29F497FF5CC0ED
:1034400010921B0259C0833F19F41916CCF354C0D3
:10345000893F41F480911D0218160CF04DC0109266
:103460001D024AC08A3F29F480911D0287FF44C093
:10347000F6CF8B3F39F480911E0287FF3DC010923A
:103480001E023AC08C3F29F480911E021816BCF32C
:1034900033C0843F21F480911A028E7F17C0853F8C
:1034A00021F480911A028D7F11C0863F21F4809112
:1034B0001A028B7F0BC0873F21F480911A02877F0D
:1034C00005C0883F31F480911A028F7E80931A02E2
:1034D00013C08D3F21F4809118028E7F0BC08E3F68
:1034E00021F4809118028D7F05C08F3F29F48091CF
:1034F00018028B7F8093180280911B0281110EC0ED
:1035000080911C0281110AC080911D02811106C0A8
:1035100080911E02811102C010921702089589E164
:1035200092E00E94EA090E9450179093160280933D
:1035300015020895CF93DF9300D000D000D0CDB70F
:10354000DEB786E0E9E1F2E0DE01119601900D922E
:103550008A95E1F780911B02811105C080911C02C0
:10356000882309F47AC080911302909114020E947A
:103570005C17AC0190911702992339F02091080152
:1035800030E02417350758F068C0209109018AE01F
:10359000289F900111242417350718F05EC09F3F23
:1035A00019F09F5F9093170210921D0210921E0255
:1035B00080911B02181624F40E94201980931B028C
:1035C00080911B0287FF05C00E942019819580937E
:1035D0001B0280911C02181624F40E94201980936B
:1035E0001C0280911C0287FF05C00E942019819552
:1035F00080931C0230911B023323E1F020911C02C6
:103600002223C1F045EB3403C0011124992319F0A2
:1036100090931B0203C081E080931B0235EB2303D0
:10362000C0011124992319F090931C0203C081E07A
:1036300080931C020E948F1A8091150290911602AD
:10364000909314028093130286E0FE013196A9E163
:10365000B2E001900D928A95E1F780911D028111EF
:1036600005C080911E02882309F47AC0809111025E
:10367000909112020E945C17AC019091170299235D
:1036800039F02091040130E02417350758F068C064
:10369000209105018AE0289F900111242417350705
:1036A00018F05EC09F3F19F09F5F90931702109231
:1036B0001B0210921C0280911D02181624F40E9415
:1036C000691980931D0280911D0287FF05C00E9429
:1036D0006919819580931D0280911E02181624F4A9
:1036E0000E94691980931E0280911E0287FF05C007
:1036F0000E946919819580931E0230911D02332327
:10370000E1F020911E022223C1F045EB3403C001F9
:103710001124992319F090931D0203C081E0809336
:103720001D0235EB2303C0011124992319F0909356
:103730001E0203C081E080931E020E948F1A8091B6
:10374000150290911602909312028093110286E066
:10375000FE013196A9E1B2E001900D928A95E1F760
:1037600026960FB6F894DEBF0FBECDBFDF91CF9186
:103770000895E9E1F2E086E0DF011D928A95E9F71C
:103780001092170210921802089580913F02089536
:10379000CF93DF9300D01F92CDB7DEB79091570241
:1037A000943019F589837B836A8382E08093E900F2
:1037B0008FEF9091E800815095FD06C095ED9A95A8
:1037C000F1F700008111F5CF8091E80085FF0DC071
:1037D00040E050E063E070E0CE0101960E94241EBC
:1037E0008091E8008E778093E8000F900F900F9003
:1037F000DF91CF910895CF93DF93EC010E94071ED4
:10380000823011F0843031F4BE0184E0DF91CF9139
:103810000C94C81BDF91CF910895BC0183E00C94F8
:10382000C81BCF93DF93EC010E94071E823011F07A
:103830008430F9F482E08093E9008FEF9091E80002
:10384000815095FD06C095ED9A95F1F70000811124
:10385000F5CF8091E80085FF0CC040E050E066E0C5
:1038600070E0CE010E94241E8091E8008E77809344
:10387000E800DF91CF910895CF93DF93EC010E9490
:10388000071E823011F08430D9F58091140188230D
:1038900039F08091510287FF03C060E282E002C0EC
:1038A00068E081E08093E9008FEF9091E80081501B
:1038B00095FD06C095ED9A95F1F700008111F5CFC1
:1038C0008091E80085FF1CC080911401811105C022
:1038D00040E050E068E070E003C070E040E050E09D
:1038E000CE010E94241E8091E8008E778093E8002C
:1038F00080E2FE01AFE1B2E001900D928A95E1F71E
:10390000DF91CF91089580915602811109C00E94E4
:10391000B51F0E9412208091E20084608093E20033
:103920000895109256020895089508950C9414175E
:1039300042E061EC81E00E942E1F42E261EC82E0F5
:103940000C942E1F80915902833009F460C030F42A
:10395000813071F0823009F499C008958A3009F4F9
:1039600085C08B3009F46BC0893009F0A7C020C036
:1039700080915802813A09F0A1C08091E800877FC8
:103980008093E80080915C0290915D02892B21F484
:1039900060E28FE192E003C060E080E090E070E0E0
:1039A0000E946F1E8091E8008B778093E800089555
:1039B00080915802813209F081C080915C0290911F
:1039C0005D02029708F07AC08091E800877F8093BB
:1039D000E8008091E80082FD05C0809157028111C6
:1039E000F8CF6CC02091F3008091F20090E0922B10
:1039F000029729F48091F1008B7F813021F480912E
:103A0000F10080933F028091E8008B7753C0809152
:103A10005802813A09F052C080915C0290915D0297
:103A2000892B09F04BC08091E800877F8093E800E4
:103A30008091E80080FFFCCF8091140136C0809116
:103A400058028132D9F580915C0290915D02892BF8
:103A5000A9F58091E800877F8093E8000E94631FAA
:103A600080915A02809314010C94CB0E80915802DD
:103A7000813221F58091E800877F8093E8000E94E1
:103A8000631F80915B0280934002089580915802E9
:103A9000813AA1F48091E800877F8093E8008091CB
:103AA000E80080FFFCCF809140028093F10080917C
:103AB000E8008E778093E8000C94631F089584B724
:103AC000877F84BF0FB6F894A895809160008861C5
:103AD00080936000109260000FBE90E080E80FB607
:103AE000F89480936100909361000FBE0E94340AA5
:103AF0000E94B51F0E9412208091E2008460809392
:103B0000E20078940E94A7220E943E0A8AE091E097
:103B10000E94BF0980915702853069F40E94DF1628
:103B2000809155028823B1F30E94C716882391F330
:103B30000E940E1EEFCF0E94480AECCF0C94A01DED
:103B4000292F332723303105C9F060F421303105A6
:103B500081F02230310509F04AC08BE390E022EA7F
:103B600032E049C02132310511F12232310579F1BB
:103B70003EC082E190E02DED32E03DC099278130DA
:103B8000910561F040F08230910559F0039779F585
:103B9000E4E6F2E008C0EEE9F2E005C0ECE7F2E0AE
:103BA00002C0EAE6F2E0849190E09F0124C0611532
:103BB000710541F061307105D1F489E090E02DECA0
:103BC00032E019C089E090E024EB32E014C06115C6
:103BD000710541F06130710551F48CEB90E02FEEEE
:103BE00032E009C080E490E02BEA33E004C080E0DA
:103BF00090E020E030E0FA01318320830895809145
:103C00005702843011F081E0089582E00895809198
:103C10004102811102C00C94FF1D089580E189BD0D
:103C200082E189BD09B400FEFDCF8091D8008F7D6F
:103C30008093D8008091E00082608093E0008091C2
:103C4000E00081FDFCCF0895CF92DF92EF92FF92CA
:103C50000F931F93CF93DF93EC018B017A010E94A6
:103C6000821F811133C0E114F10439F0F701808122
:103C70009181081B190BC80FD91FC12CD12C01151C
:103C8000110519F18091E80085FD16C08091E800CA
:103C90008E778093E800E114F10449F0F701808108
:103CA0009181C80ED91ED182C08285E00FC00E94CA
:103CB000821F882321F30AC089918093F10001506B
:103CC0001109FFEFCF1ADF0ADACF80E0DF91CF9141
:103CD0001F910F91FF90EF90DF90CF90089520916A
:103CE0005E0230915F022617370748F061157105B3
:103CF00039F42091E8002E772093E80001C0B90143
:103D0000FC0120E06115710579F18091570288234B
:103D1000F1F18530F1F18091E80083FD3CC08091A4
:103D2000E80082FD2EC08091E80080FFEBCF20915B
:103D3000F3008091F20090E0922B6115710551F033
:103D40008830910538F421912093F1006150710978
:103D50000196F3CF21E0089709F020E08091E80078
:103D60008E778093E800CECF2111CFCF0AC080910B
:103D70005702882361F0853061F08091E80083FD6F
:103D80000AC08091E80082FFF2CF80E0089582E0CF
:103D9000089583E0089581E0089520915E023091B6
:103DA0005F022617370748F06115710539F4209135
:103DB000E8002E772093E80001C0B901FC0120E063
:103DC0006115710591F180915702882309F440C073
:103DD000853009F43FC08091E80083FD3DC08091AB
:103DE000E80082FD2FC08091E80080FFE9CF20919C
:103DF000F3008091F20090E0922B6115710559F06B
:103E00008830910540F424912093F100319661505F
:103E100071090196F2CF21E0089709F020E0809126
:103E2000E8008E778093E800CBCF2111CCCF0AC079
:103E300080915702882361F0853061F08091E8001D
:103E400083FD0AC08091E80082FFF2CF80E00895F0
:103E500082E0089583E0089581E00895982F9730D7
:103E600068F59093E900981739F07091EC00209173
:103E7000ED005091F00003C0242F762F50E021FD7B
:103E800002C09F5FECCF3091EB003E7F3093EB00A0
:103E90003091ED003D7F3093ED003091EB003160CB
:103EA0003093EB007093EC002093ED005093F00002
:103EB0002091EE0027FDE5CF80E008958F7080937C
:103EC000E90081E008958091580287FF11C0809138
:103ED000E80082FD05C0809157028111F8CF11C022
:103EE0008091E8008B770BC080915702882349F0BE
:103EF0008091E80080FFF8CF8091E8008E77809372
:103F0000E80008952091E4003091E50095E64091A5
:103F1000EC00842F817040FF23C08091E80080FD79
:103F20001DC080915702882399F0853099F08091C7
:103F3000EB0085FD11C04091E4005091E50024178D
:103F4000350729F3915011F09A01E1CF84E00895EB
:103F500082E0089583E0089581E0089580E0089567
:103F60004091E80042FFDDCF08950E9423200E9487
:103F70002B20E0EEF0E0808181608083E8EDF0E0CE
:103F800080818F77808319BCA7EDB0E08C918E7F04
:103F90008C9380818F7E80831092560208950F93B8
:103FA0001F93CF93DF930E9423200E942B20C8ED04
:103FB000D0E088818F778883888180688883888132
:103FC0008F7D888319BC1092570210925302109271
:103FD00055021092540200EE10E0F80180818B7FB0
:103FE000808388818160888342E060E080E00E9475
:103FF0002E1FE1EEF0E080818E7F8083E2EEF0E024
:10400000808181608083808188608083F8018081E5
:104010008E7F8083888180618883DF91CF911F911B
:104020000F910895E8EDF0E080818F7E8083E7EDC9
:10403000F0E080818160808384E082BF81E08093B2
:1040400056020C94CF1FE8EDF0E080818E7F8083D4
:104050001092E20008951092DA001092E1000895A3
:104060001F920F920FB60F9211242F933F934F93ED
:104070005F936F937F938F939F93AF93BF93EF93D0
:10408000FF938091E10082FF0BC08091E20082FFEC
:1040900007C08091E1008B7F8093E1000E94A622FF
:1040A0008091DA0080FF1FC08091D80080FF1BC084
:1040B0008091DA008E7F8093DA008091D90080FFB2
:1040C0000DC080E189BD82E189BD09B400FEFDCF4C
:1040D00081E0809357020E94831C05C019BC109296
:1040E00057020E94911C8091E10080FF19C08091CD
:1040F000E20080FF15C08091E2008E7F8093E20095
:104100008091E20080618093E2008091D80080621B
:104110008093D80019BC85E0809357020E94951CBB
:104120008091E10084FF30C08091E20084FF2CC0C8
:1041300080E189BD82E189BD09B400FEFDCF809197
:10414000D8008F7D8093D8008091E1008F7E80938E
:10415000E1008091E2008F7E8093E2008091E20096
:1041600081608093E20080915302882311F084E003
:1041700007C08091E30087FD02C081E001C083E0B9
:10418000809357020E94961C8091E10083FF29C012
:104190008091E20083FF25C08091E100877F8093BA
:1041A000E10082E080935702109253028091E10077
:1041B0008E7F8093E1008091E2008E7F8093E20009
:1041C0008091E20080618093E20042E060E080E064
:1041D0000E942E1F8091F00088608093F0000E9462
:1041E000941CFF91EF91BF91AF919F918F917F911F
:1041F0006F915F914F913F912F910F900FBE0F9054
:104200001F9018951F920F920FB60F9211242F93A3
:104210003F934F935F936F937F938F939F93AF934E
:10422000BF93CF93DF93EF93FF93C091E900CF70DB
:104230008091EC00D82FD17080FDD0E81092E90079
:104240008091F000877F8093F00078940E9446214F
:104250001092E9008091F00088608093F000CD2BEF
:10426000CF70C093E900FF91EF91DF91CF91BF91A3
:10427000AF919F918F917F916F915F914F913F91FE
:104280002F910F900FBE0F901F9018951F93CF93F3
:10429000DF93CDB7DEB7AA970FB6F894DEBF0FBE97
:1042A000CDBFE8E5F2E08091F100819322E0E036B5
:1042B000F207C9F70E94A21C8091E80083FF2EC17B
:1042C0008091580290915902492F50E04A3051058F
:1042D00008F024C1FA01EC58FF4F0C941C238038DD
:1042E00021F0823809F01AC108C0809154029091DF
:1042F0005502992389F082600FC080915C028F7013
:10430000873008F00BC18093E9008091EB0085FBBA
:10431000882780F91092E9009091E800977F9093A8
:10432000E8008093F1001092F100D1C0282F2D7F7A
:1043300009F0F4C0882319F0823061F0EFC0809159
:104340005A02813009F0EAC0933009F080E080938E
:1043500055022EC080915A0281112AC080915C02C0
:104360008F702FEF280F263008F0D8C08093E90017
:104370002091EB0020FF1CC0933021F48091EB00D2
:10438000806214C09091EB0090619093EB0021E06B
:1043900030E0A90102C0440F551F8A95E2F740930F
:1043A000EA001092EA008091EB0088608093EB00B5
:1043B0001092E9008091E800877F8093E8000E94D6
:1043C000631FACC08111AAC010915A021F7780915F
:1043D000E3008078812B8093E3008091E800877F61
:1043E0008093E8000E94631F8091E80080FFFCCF6B
:1043F0008091E30080688093E300111102C082E0A5
:1044000001C083E08093570289C08058823008F051
:1044100085C080915A0290915B028C3D53E09507D4
:1044200079F583E08A838AE289834FB7F894DE01C5
:10443000139620E03EE051E2E32FF0E05093570066
:10444000E49120FF03C0E295EF703F5FEF708E2F85
:1044500090E0EA3010F0C79601C0C0968D939D930E
:104460002F5F243149F74FBF8091E800877F809309
:10447000E8006AE270E0CE0101960E946F1E16C04D
:1044800060915C0270915D02AE014F5F5F4F0E94D0
:104490009E1DBC01892B09F441C09091E800977FD3
:1044A0009093E80089819A810E94CD1E8091E80056
:1044B0008B778093E80032C0803881F58091E800E6
:1044C000877F8093E800809153028093F100809170
:1044D000E8008E7772CF811121C080915A029091AD
:1044E0005B0299270297D4F48091E800877F80933C
:1044F000E80080915A02809353020E94631F8091CA
:104500005302811106C08091E30087FD02C081E063
:1045100001C084E0809357020E94981C8091E800BB
:1045200083FF0AC08091E800877F8093E800809134
:10453000EB0080628093EB00AA960FB6F894DEBF82
:104540000FBECDBFDF91CF911F9108950895CF93F6
:10455000809157028823A1F0C091E900CF7090911B
:10456000EC00892F817090FD80E8C82B1092E90043
:104570008091E80083FD0E944621CF70C093E9003E
:10458000CF910895DB018F939F930E943123BF91B8
:10459000AF91A29F800D911DA39F900DB29F900D92
:1045A00011240895AA1BBB1B51E107C0AA1FBB1F02
:1045B000A617B70710F0A61BB70B881F991F5A95AF
:1045C000A9F780959095BC01CD01089597FB072E22
:1045D00016F4009407D077FD09D00E94D22207FC80
:1045E00005D03EF4909581959F4F08957095619503
:1045F0007F4F0895A1E21A2EAA1BBB1BFD010DC01F
:10460000AA1FBB1FEE1FFF1FA217B307E407F50782
:1046100020F0A21BB30BE40BF50B661F771F881F5E
:10462000991F1A9469F760957095809590959B01F4
:10463000AC01BD01CF010895EE0FFF1F0590F4916D
:10464000E02D0994A29FB001B39FC001A39F700DFC
:10465000811D1124911DB29F700D811D1124911D8A
:1046600008950E942223A59F900DB49F900DA49FB2
:10467000800D911D11240895F999FECF92BD81BD41
:10468000F89A992780B50895A8E1B0E042E050E09B
:104690000C947023262FF999FECF92BD81BDF89A14
:1046A000019700B4021639F01FBA20BD0FB6F89476
:1046B000FA9AF99A0FBE08950396272F0E944B236A
:1046C0000E944A23252F0E944B23242F0C944B2316
:1046D0000196272F0E944B230C944A23DC01CB0127
:1046E000FC01F999FECF06C0F2BDE1BDF89A319602
:1046F00000B40D9241505040B8F70895F894FFCFA0
:10470000EC012808641E140A321EC51B3C1C111C37
:104710000D1CFB1B01E200E900EA00B500B600B782
:1047200000CD008301CC008A019201940121022373
:104730000224022502260227022A02B300B4006FD7
:1047400000700081828334C697669490F7313332CB
:1047500036E200E900EA00B500B600B700CD0083FC
:1047600001CC008A01920194012102230224022536
:1047700002260227022A02B300B4006F00700081F3
:02478000828332
:00000001FF
